:020000040800F2
:1000000048060020D5000008AD2E0008D32B0008BC
:1000100000000000000000000000000000000000E0
:10002000000000000000000000000000112F000888
:100030000000000000000000F52E0008E5000008A8
:10004000E7000008E7000008E7000008E7000008F4
:10005000E7000008DD030008E7000008E7030008E8
:10006000E7000008E7000008E7000008E7000008D4
:10007000E7000008E7000008E7000008E7000008C4
:10008000E7000008E92F0008E70000080000000072
:10009000E7000008E7000008E7000008E7000008A4
:1000A000E7000008E7000008E7000008BD36000888
:1000B000E7000008F92E000800000000E700000833
:1000C0000348854600F08EF800480047AD37000829
:1000D000480600200448804704480047FEE7FEE742
:1000E000FEE7FEE7FEE7FEE7952F0008C1000008E7
:1000F00030B50B46014600202022012409E00D46C0
:10010000D5409D4205D31D469540491B2546954047
:1001100040191546521E002DF1DC30BDF0B51FB45C
:100120000646002082B005464024019100901BE065
:10013000019922460F46304600F042F8049A059B8A
:10014000801A994110D310461946224600F028F82B
:10015000361A8F410197224601200021009F00F0AE
:100160001FF838184D4100902046641E0028DFDC3F
:10017000019B00982946324607B0F0BDD2B201E09B
:100180000270401C491EFBD270470022F6E710B5F2
:1001900013460A4604461946FFF7F0FF204610BDF5
:1001A00010B5202A04DB0146203A9140002010BD02
:1001B000914020239C1A0346E3401943904010BD10
:1001C00010B5202A04DB0846203AD040002110BD9B
:1001D0000B46D340D0402024A21A91400843194630
:1001E00010BD0000064C0125064E05E0E36807CC73
:1001F0002B430C3C98471034B442F7D3FFF764FF0D
:10020000203800084038000870B5044600681749D7
:10021000884203D0164917A003F074FA2068816859
:10022000490720D5816810264907002905DA816829
:10023000890702D481683143816000F0B7FF054629
:100240000DE000F0B3FF401B0A2808D9606D304371
:100250006065A06D01210843A065084670BD206857
:1002600080684007EDD4002070BD000000240140EC
:100270000E0900002E2E5C447269766572735C5321
:10028000544D33324C3078785F48414C5F4472694A
:100290007665725C5372635C73746D33326C307864
:1002A000785F68616C5F6164632E630038B50446F3
:1002B000064805490068FFF71BFF604300E0401E49
:1002C00000900028FBD138BD40420F0008000020FC
:1002D000F8B50446006881688907890F012925D18E
:1002E0000168C90722D08168052211401025012626
:1002F00001290FD181680222114381602168032006
:10030000086000F053FF07460CE000F04FFFC01BF1
:100310000A2807D9606D28436065A06D3043A06549
:100320000120F8BD20688068C007EED10020F8BD2C
:10033000F8B50446006881688907890F012902D150
:100340000168C90722D18168114A10261140012590
:1003500000290ED18168294381600120FFF7A6FFA3
:1003600000F024FF07460CE000F020FFC01B0A2825
:1003700007D9606D30436065A06D2843A0650120FA
:10038000F8BD20680068C043C007EDD10020F8BD6B
:10039000170000801CB500200190054800906946B8
:1003A000044800F029F8002801D000F024F81CBD12
:1003B00000040028B00100201CB5064800908013FE
:1003C00001906946044800F017F8002801D000F0B9
:1003D00012F81CBD02000004B001002010B501207D
:1003E00000F0FAFC10BD10B5102000F0F5FC8020E4
:1003F00000F0F2FC10BD7047F8B50E4604460068E8
:100400004949884203D0494949A003F07BF9306843
:10041000012837D05449884234D04900884231D02D
:10042000524988422ED0524988422BD051498842A5
:1004300028D05149884225D05049884222D050497D
:1004400088421FD04F4988421CD04F49884219D05A
:100450004E49884216D04E49884213D04D498842B1
:1004600010D04D4988420DD04C4988420AD04C49A1
:10047000884207D04B49884204D02C492CA0491C03
:1004800003F040F90121090370684F1C884206D02F
:10049000B84204D00F21C90125A003F033F9254645
:1004A0004035287C01280DD00120287420688168FF
:1004B000490709D5606D2021084360650020287434
:1004C0000120F8BD0220F8BD01213B46C905726834
:1004D0004F109A42344C826A336812D05B035B0B34
:1004E0001A4382623068400305D5A0680843A060C3
:1004F0000A20FFF7DBFE3068800312D5A06838437E
:100500000EE05B035B0B9A4382623068400302D5C6
:10051000A0688843A0603068800302D5A068B84313
:10052000A06000202874F8BD002401407E07000070
:100530002E2E5C447269766572735C53544D33326F
:100540004C3078785F48414C5F4472697665725CE4
:100550005372635C73746D33326C3078785F6861AA
:100560006C5F6164632E6300020000040800000CED
:100570001000001020000014400000188000001C33
:100580000001002000020024000400280008002CC4
:100590000010003000200034004000380080003C93
:1005A00000000448000002440027014010B5044642
:1005B00000680549884203D0044905A003F0A2F869
:1005C0002068006C10BD000000240140830600007C
:1005D0002E2E5C447269766572735C53544D3332CF
:1005E0004C3078785F48414C5F4472697665725C44
:1005F0005372635C73746D33326C3078785F68610A
:100600006C5F6164632E6300F8B504007ED0FE4920
:100610002068884204D0FF219D31FCA003F072F8CD
:100620006068002838D003218907884234D04942C5
:10063000884231D0490088422ED0490B88422BD0C5
:100640004900884228D003218904884224D001210E
:100650000905884220D00521890488421CD0032145
:10066000C904884218D007218904884214D0012186
:100670004905884210D00921890488420CD00521FF
:10068000C904884208D00B218904884204D0FF2184
:100690009E31DEA003F036F8A06800280AD00828B2
:1006A00008D0102806D0182804D0FF219F31D7A0E9
:1006B00003F028F8E068002806D0202804D0FF21A5
:1006C000A031D2A003F01EF82069012806D002282C
:1006D00004D0FF21A131CDA003F014F82546203528
:1006E0002878002806D0012804D0FF21A231C7A015
:1006F00003F008F86878002806D0012804D0FF210C
:10070000A331C2A002F0FEFFA06A00E097E000283B
:100710000FD00121890288420BD04900884208D0BD
:1007200003218902884204D0FF21A431B7A002F03E
:10073000E9FF606A00281DD040281BD0802819D00E
:10074000C02817D0C11FF93914D00146FF394139EB
:1007500010D00146FF3981390CD00146FF39C1392B
:1007600008D00146FF39C23904D0FF21A531A7A026
:1007700002F0C8FF287B002806D0012804D0FF2102
:10078000A631A2A002F0BEFF6069042806D00828A6
:1007900004D0FF21A7319DA002F0B4FF206B0028F8
:1007A00008D001210903884204D0FF21A83197A075
:1007B00002F0A8FFA069002806D0012804D0FF217C
:1007C000A93192A002F09EFF606B002806D001289C
:1007D00004D0FF21AA318DA002F094FFE069002827
:1007E00006D0012804D0FF21AB3188A002F08AFF97
:1007F000A06B002812D0012810D002280ED00328A8
:100800000CD004280AD0052808D0062806D00728CE
:1008100004D0FF21AC317DA002F074FFE06B002812
:1008200006D0012804D0FF21AD3178A002F06AFF84
:10083000606D274600264037002802D006E00120E0
:10084000F8BDA6653E74204600F02EF9606DC00626
:1008500003D420688168490705D5606D10210843DD
:1008600060653E74EBE7616DFF270137B9430222F3
:100870001143616581688A07920F7249012A02D18A
:100880000268D2072BD1032362689B079A4205D0E6
:100890005B429A4202D05B009A4209D102699200FF
:1008A000920802612068026963681A4302610CE0E1
:1008B000026992009208026188680F2292049043B4
:1008C000886088686268104388602068C26818235E
:1008D0009A43C2602068C268A3681A43C2608868ED
:1008E00001225206904388608868A28E5206104307
:1008F000886020688168C90004D4816801221207D9
:10090000114381602068C1684F4A1140C16021696C
:10091000E068022922D00021084329782A7B490374
:10092000520011430843216B0843A169890308431E
:10093000E169C90308432168CA681043C860606A56
:100940000146FF39C23905D0A16A08432168CA6847
:100950001043C8606878012802D00CE00421DBE76E
:100960002878002824D0606D202108436065A06DA0
:1009700001210843A065E06B012820D020680169AF
:10098000C90703D00169490849000161206841692C
:10099000C908C900416120684169A26B11434161E6
:1009A000A665606D80088000401C60650020F8BD71
:1009B0002068C168012212041143C160DBE7206C8A
:1009C000002812D0042810D008280ED00C280CD0F3
:1009D00010280AD0142808D0182806D01C2804D0C3
:1009E0009321890009A002F08DFE606C002836D0AA
:1009F000202834D0402832D0602830D080282ED013
:100A0000A0282CD0C02821E0002401402E2E5C44D8
:100A10007269766572735C53544D33324C3078781A
:100A20005F48414C5F4472697665725C5372635CE7
:100A300073746D33326C3078785F68616C5F6164B9
:100A4000632E6300002701401902FEFF07D0E02853
:100A500005D0B84203D01249124802F053FEA06CF0
:100A6000002808D0C11FFF39FA3904D00C490D48BD
:100A7000491C02F047FE20680169FF229200914361
:100A8000016121680869226CA36C1043626C1A43EF
:100A900010430861206801690122114375E70000D5
:100AA0004D0200000C0A000830B587B0044614213E
:100AB0006846FFF76AFB14492068884222D1134830
:100AC000416B421511434163C26A04210A43C26269
:100AD000C26A0A400592C26A01210A43C262C06A20
:100AE00003240840059000256A4632C2694608483A
:100AF00000F07EF902206A4631C2052069460007EF
:100B000000F076F907B030BD00240140001002402B
:100B100000080050F8B50E46044600683249884285
:100B200003D0324932A002F0EDFD25466069403520
:100B300008280BD02068C068C00709D0606D20214C
:100B400008436065002028740120F8BD082700E0F4
:100B50000C2700F02BFB009012E0701C10D0002E30
:100B600006D000F023FB01460098081AB04207D9CE
:100B7000606D042108436065002028740320F8BDDF
:100B8000206800683842E8D0606D012149020843BE
:100B900060652068C16809058A0F0C21002A1BD1F5
:100BA0002022125D002A17D10268120714D582682C
:100BB00053070122002B08DB43688B434360606DC1
:100BC000130298431043606506E0606D20231843CC
:100BD0006065A06D1043A065A069002801D1206860
:100BE00001600020F8BD00000024014086040000E0
:100BF0002E2E5C447269766572735C53544D3332A9
:100C00004C3078785F48414C5F4472697665725C1D
:100C10005372635C73746D33326C3078785F6861E3
:100C20006C5F6164632E630070B5044600681A4906
:100C30000025884203D0194919A002F063FD2068FD
:100C40008068400724D426464036307C01280AD0EC
:100C500001203074E069012807D02046FFF768FBC7
:100C6000050002D015E0022070BD606D1A490840F1
:100C7000FF210131084360650020A06530742168C0
:100C80001C2008602068816804221143816000E014
:100C90000225284670BD0000002401400D0400001C
:100CA0002E2E5C447269766572735C53544D3332F8
:100CB0004C3078785F48414C5F4472697665725C6D
:100CC0005372635C73746D33326C3078785F686133
:100CD0006C5F6164632E6300FEF1FFFF70B5044634
:100CE00000681249884203D0114912A002F00AFD9F
:100CF00025464035287C012807D001262E74204641
:100D0000FFF782FA002802D00CE0022070BD2046D6
:100D1000FFF7DEFA002805D1616DFF220132914311
:100D2000314361650021297470BD00000024014039
:100D30004F0400002E2E5C447269766572735C531A
:100D4000544D33324C3078785F48414C5F4472697F
:100D50007665725C5372635C73746D33326C307899
:100D6000785F68616C5F6164632E630070B5002416
:100D7000014620314A79022A03D00421C1630124AB
:100D800018E0026813680E25AB431360026813680D
:100D90005B085B001360436C1C2213400122154664
:100DA0009D40036C5D604A7100220A71816B0029CD
:100DB00000D08847204670BD70B5044600F0F6F9B3
:100DC0000546601C00D0641C00F0F0F9401BA042F6
:100DD000FAD370BD7047000010B504494A69024259
:100DE00002D04861FFF7F6FF10BD0000000401408B
:100DF000F8B50446486800270D4600281FD0012892
:100E00001DD011281BD0022819D0122817D09649BE
:100E1000884214D09549884211D0954988420ED015
:100E2000944988420BD09449884208D0934988421B
:100E300005D0032803D0AE2191A002F063FCA8687E
:100E4000002807D0012805D0022803D0AF218CA0AC
:100E500002F058FC05200007844204D128680104F0
:100E6000090C25D109E09548844206D1286801047F
:100E7000090C0CD0000C2CD009E09148844206D11A
:100E800028680104090C0CD0000CF4D009E08D484E
:100E9000844206D128680104090C0BD0000CEAD06A
:100EA00008E08948844205D128680104090C0CD067
:100EB000000C08E08548844207D18549286808422B
:100EC00003D0C94308400028D5D0B0216CA002F05F
:100ED00019FCC3E00121B940064600910E407DD0C7
:100EE0006868022801D012282AD105200007844210
:100EF00012D0724884420FD0714884420CD071489D
:100F0000844209D07048844206D07048844203D09D
:100F1000BF215BA002F0F6FB2869072803D9C02196
:100F200057A002F0EFFBF80880000319186A790750
:100F3000CA0E0F21914088432969914001431962EB
:100F40006868012805D0022803D0112801D0122892
:100F50001ED1E868002809D0012807D0022805D052
:100F6000032803D0CE2146A002F0CCFBA1687A0072
:100F7000032090408143E86890400843A060606887
:100F8000009988432979C906C90FB94001436160B6
:100F900023687A0003209040297983438907890FC9
:100FA000914019432160E1688143A868904008435B
:100FB000E0606868C00050D54648416B012211438B
:100FC0004163B908444889000B189868B9070A0FAB
:100FD0000F21914088430521090700E03DE08C4244
:100FE00001D1002119E035498C4201D1012114E0E1
:100FF00033498C4201D102210FE032498C4201D1A8
:1010000003210AE030498C4201D1042105E02F4937
:101010008C4201D1052100E00621914001439960F5
:101020002E4908686A68B043D20300D5304308608F
:1010300048686A68B043920300D5304348608868C6
:101040006A68B043D20200D530438860C8686A68D5
:10105000B043920200D53043C8607F1C2E683046F2
:10106000FE4000D036E7F8BD00001110000021104E
:101070000000311000001210000022100000321099
:101080002E2E2F447269766572732F53544D33326E
:101090004C3078785F48414C5F4472697665722FB6
:1010A0005372632F73746D33326C3078785F68617C
:1010B0006C5F6770696F2E630000000000040050D1
:1010C00000080050000C005000100050001C0050A0
:1010D000030600000010024000000140000401402F
:1010E000F8B516460C46054605273F071A481B4922
:1010F0001B4A1C4BBD4210D0854202D1002C1DD191
:1011000004E08D4202D1002C18D104E0954202D1B6
:10111000002C13D104E09D4202D1002C0ED108E036
:101120001148854205D11148044202D0C04304420F
:1011300004D0FF219D310EA002F0E4FA002E08D069
:10114000012E04D0FF219E3109A002F0DBFAAC6130
:10115000F8BDAC62F8BD000000040050000800506B
:10116000000C005000100050001C0050030600004E
:101170002E2E2F447269766572732F53544D33327D
:101180004C3078785F48414C5F4472697665722FC5
:101190005372632F73746D33326C3078785F68618B
:1011A0006C5F6770696F2E63000000000148006883
:1011B000704700000400002002480168491C0160DB
:1011C000704700000400002010B5084800240168A2
:1011D000402211430160204600F00AF8002801D0A7
:1011E000012401E000F03EF8204610BD002002403E
:1011F00000B5014687B00022112000F06DF81120E3
:1012000000F03CF81248816B10221143816305A95C
:10121000684600F039FB00F083FB40000D49FEF703
:1012200067FF0E490C4A0A600D4A401ECA604860BA
:10123000002008618860084601F066F9002802D0A5
:10124000012007B000BD054801F054FAF9E700009D
:101250000010024040420F000010004074010020C6
:10126000E70300000448416B012211434163816B95
:1012700002041143816370470010024010B504005E
:1012800003D5972104A002F03DFAE106C90E012022
:1012900088401049086010BD2E2E2F447269766573
:1012A00072732F53544D33324C3078785F48414C31
:1012B0005F4472697665722F5372632F73746D3356
:1012C000326C3078785F68616C5F636F72746578D8
:1012D0002E63000000E100E070B50C4605460429CD
:1012E00003D3872103A002F00DFA2146284601F01E
:1012F000DFFD70BD2E2E2F447269766572732F53F9
:10130000544D33324C3078785F48414C5F447269B9
:101310007665722F5372632F73746D33326C30782D
:10132000785F68616C5F636F727465782E6300002C
:10133000F8B504460068A249884203D96721A1A0F4
:1013400002F0E0F92078AE4D800674D56068002880
:101350001AD001210904884216D04900884213D0CE
:101360000321090488420FD01321090488420BD0BD
:1013700023210904884207D033210904884203D07D
:10138000732190A002F0BEF99D4E0027403EB06B45
:10139000C00004D4B06B31040843B06301279948FE
:1013A0000168C90511D40168821511430160FFF776
:1013B000FDFE009005E0FFF7F9FE0099401A642851
:1013C00037D890480068C005F5D532680321090573
:1013D00060680A400140914208D08103890F0329C7
:1013E00004D13168890301D50120F8BD2A690321A0
:1013F00009040A4023D00840904220D0207880067B
:101400001DD528692A6988430121C9040A432A6134
:101410002A698A432A612861C00510D5FFF7C6FEF4
:10142000009009E0FFF7C2FE0099411A7648814218
:1014300002D90320F8BD1BE028698005F2D5616858
:101440008803800F032805D13268000582430140DC
:101450000A4332602869032261681204114008437C
:101460002861002F04D0B06B012109078843B063C5
:101470002078C00712D0A068002809D0012807D022
:10148000032805D0022803D0DE214EA002F03AF94D
:10149000E868A168800880000843E8602078800739
:1014A00012D5E068002809D0042807D00C2805D000
:1014B000082803D0E92143A002F024F9E8680C21B0
:1014C0008843E1680843E8602078400716D5032682
:1014D0002069B60200280CD001218902884208D078
:1014E000B04206D04900884203D0F32135A002F073
:1014F00009F9E8682169B0430843E86020780007EB
:1015000014D5606900280AD001210903884206D059
:101510004900884203D0FD212AA002F0F3F8E868D0
:1015200003210903884361690843E8602088C005F6
:1015300015D5A06900280BD001210904884207D0E5
:101540004900884204D0FF2109311EA002F0DAF8D8
:10155000E868032109048843A1690843E86020780A
:10156000400610D50126206AB606B04206D00028F3
:1015700004D0FF21143113A002F0C4F8E868216AF6
:10158000B0430843E8602078000617D50326E069D9
:10159000B60400280DD001218904884209D04900F1
:1015A000884206D0B04204D0FF211C3105A002F0D1
:1015B000A9F8E868E169B0430843E860002039E72A
:1015C000FF0100002E2E2F447269766572732F532F
:1015D000544D33324C3078785F48414C5F447269E7
:1015E0007665722F5372632F73746D33326C30785B
:1015F000785F68616C5F7263635F65782E6300007B
:10160000401002400070004088130000F8B50E46FC
:10161000050075D02868C10709D1810707D44107A3
:1016200005D4000703D4824982A002F06BF8002E93
:1016300006D0012E04D07E497EA0491C02F062F83B
:101640008A480068C007C00FB0420AD287480168C4
:1016500049084900314301600068C007C00FB0422B
:101660004ED12878824C80071DD5A868002814D058
:10167000802812D0902810D0A0280ED0B0280CD0EE
:10168000C0280AD0D02808D0E02806D0F02804D0FE
:10169000674968A0183102F035F8E068F021884306
:1016A000A9680843E0602878C00763D0686800280C
:1016B00011D001282BD0022823D0032824D05C4944
:1016C0005CA01F3102F01EF86868022819D00328B8
:1016D0001AD001281BD02068800500285ADAE0685B
:1016E0006968800880000843E060FFF75FFD696873
:1016F0000746022914D003291ED0012928D035E03D
:1017000048E020688003E8E720688001E5E720687A
:101710004007E2E7FFF74AFDC11B5648814223D844
:10172000E0680007800F0228F4D123E0FFF73EFDB8
:10173000C11B5048814217D8E0680007800F03287A
:10174000F4D117E0FFF732FDC11B4A4881420BD8A4
:10175000E0680007800F0128F4D10BE0FFF726FDB9
:10176000C11B4448814201D90320F8BDE06800074D
:10177000800FF3D13D480168C907C90FB1420BD9A9
:10178000016849084900314301600068C007C00F83
:10179000B04201D00120F8BD2878374F374E4007BE
:1017A00018D5E868002810D0B8420ED005210902EB
:1017B00088420AD003214902884206D0B04204D0B0
:1017C0002D491CA0163901F09DFFE068E968B0437F
:1017D0000843E060287800071BD52869002810D04E
:1017E000B8420ED00521090288420AD003214902DD
:1017F000884206D0B04204D01F490EA00F3901F034
:1018000081FFE0680721C90288432969C9000843AC
:10181000E06000F0A5F8E168194A0906090F515C7B
:10182000C840184908600020FFF7E2FCF8BD00003E
:10183000660300002E2E2F447269766572732F5353
:10184000544D33324C3078785F48414C5F44726974
:101850007665722F5372632F73746D33326C3078E8
:10186000785F68616C5F7263632E630000200240E2
:101870000010024088130000000400000007000070
:10188000FC3700080800002070B50D46040003D1A5
:10189000124913A001F036FF002D04D10F4910A00A
:1018A000491C01F02FFF0F2020601B48C1688907E9
:1018B000890F6160C168F0221140A160C2680721F0
:1018C00009020A40E260C068C0080840206113486D
:1018D0000068C007C00F286070BD000083050000CD
:1018E0002E2E2F447269766572732F53544D333206
:1018F0004C3078785F48414C5F4472697665722F4E
:101900005372632F73746D33326C3078785F686113
:101910006C5F7263632E630000100240002002407F
:10192000044805490068C968044A4905490F515CE3
:10193000C840704708000020001002401538000819
:10194000044805490068C968044A8904490F515C84
:10195000C8407047080000200010024015380008F9
:1019600010B5184AD1680C20084004280BD008286C
:1019700010D00C2810D050680004410F0120C00383
:10198000491C884010BD1068C00601D50E4810BD26
:101990000E4810BD0E4810BD88020E4B000F185C9B
:1019A0000902D368890F491CDB0301D5084A05E009
:1019B0001268D20601D5044A00E0044A5043FEF7FB
:1019C00097FB10BD0010024000093D000024F40008
:1019D00000127A000C380008FEB504007ED02068A2
:1019E000002810D0C1070ED181070CD481060AD47B
:1019F000010708D4410706D4C00604D4FF21613191
:101A0000F1A001F07FFEFE4DEF680C20EE6807406C
:101A10000120000406402078C00758D060680028E4
:101A20000CD001210904884208D00521090488420C
:101A300004D0FF216A31E4A001F064FE082F05D034
:101A40000C2F0AD101200004864206D128688003A9
:101A50003DD560680028C1D039E0012061680004EC
:101A6000814202D12968014312E005221204914209
:101A7000296804D10122920411432960F2E78143CD
:101A80002960296801400091296801208004814370
:101A90002960606800280DD0FFF788FB009005E002
:101AA000FFF784FB0099401A64287AD828688003DD
:101AB000F6D50CE0FFF77AFB009005E0FFF776FB28
:101AC0000099401A6428F0D828688003F6D420785A
:101AD000800777D5E068002810D000E0EBE201280D
:101AE0000CD009280AD0202808D0212806D029287F
:101AF00004D0FF219D31B4A001F004FE20691F280D
:101B000004D9FF219E31B0A001F0FCFDE068810600
:101B100004D52A6820210A432A6088430921042F1A
:101B20000DD00C2F01D1002E09D000283AD02A6800
:101B30008A4302432A60FFF739FB064625E02A68FC
:101B4000520701D5002886D06A681F231B029A43DA
:101B500023691B021A436A602A688A4302432A6087
:101B6000FFF7FEFEE96809060A0FA649895CC8402E
:101B7000A54908600020FFF73BFB00287ED121E04B
:101B8000FFF714FB801B02288FD828684007F7D581
:101B900068681F21090288432169090208436860B7
:101BA00010E041E22868400840002860FFF7FEFA94
:101BB000064604E0FFF7FAFA801B0228E4D82868FA
:101BC0004007F7D42078C00664D50126F603002F1D
:101BD00015D0E06900287DD0012807D04321C90035
:101BE00079A001F08FFDE0690028F4D02868FF217A
:101BF000013108432860FFF7D9FA009051E02868C6
:101C0000800502D5E06900289DD0206AFF2804D90C
:101C1000012149026CA001F075FD606A002818D00E
:101C200001214903884214D04900884211D0032180
:101C3000490388420DD0B0420BD0052149038842A8
:101C400007D003218903884203D070495EA001F0C8
:101C500059FD6868072149038843616A0843686041
:101C60006868218C0002000A090608436860606AFF
:101C7000400B401C8640E868000600E07EE0010F53
:101C80006048405CC640604806600020FFF7B0FA3C
:101C9000002873D14FE0FFF789FA0099401A022813
:101CA0008CD828688005F6D5206AFF2804D98B21B6
:101CB000890045A001F026FD606A00281BD00121A3
:101CC0004903884217D04900884214D003214903B0
:101CD000884200E01EE00ED0B0420CD0052149033E
:101CE000884208D003218903884204D0474936A09E
:101CF0002C3101F007FD6868072149038843616AB8
:101D0000084368606868218C0002000A09060843DD
:101D1000686010E02968FF20013081432960FFF7E7
:101D200045FA064604E0FFF741FA801B0228B7D8BF
:101D300028688005F7D42078354E000730D56069D3
:101D400000281CD0012807D030491FA04A3101F0DB
:101D5000D9FC6069002812D0306901210843306144
:101D6000FFF724FA009005E0FFF720FA0099401AE7
:101D7000022895D830698007F6D511E083E13069F3
:101D8000400840003061FFF711FA009005E0FFF7CE
:101D90000DFA0099401A0228C9D830698007F6D494
:101DA000207840077AD500200290A068002833D020
:101DB000C11FF93930D00521090288422CD01349BE
:101DC00001A0763126E000002E2E2F447269766540
:101DD00072732F53544D33324C3078785F48414CF6
:101DE0005F4472697665722F5372632F73746D331B
:101DF000326C3078785F68616C5F7263632E630069
:101E000000100240FC37000808000020010200001A
:101E10004010024001F076FCA86BC00006D4A86B0D
:101E2000012109070843A86301200290A448016822
:101E3000C90511D40168821511430160FFF7B6F995
:101E4000009005E0FFF7B2F90099401A642890D895
:101E50009B480068C005F5D5FF20A268013082428A
:101E600003D131690143316111E001218902002A66
:101E700007D005231B029A4203D132690A4332611B
:101E8000EFE7326982433261306988433061A0688C
:101E900000280FD0FFF78AF9009007E020E0FFF755
:101EA00085F90099411A87488142D0D83069800568
:101EB000F5D50DE0FFF77AF9009006E0FFF776F927
:101EC0000099411A7F488142C1D830698005F5D414
:101ED0000298002804D0A96B012000078143A96360
:101EE000207880063AD5A069774E002821D00128B5
:101EF00006D07649764801F005FCA069002818D084
:101F0000A96801200143A960696B01436963306AD4
:101F10000121490308433062FFF748F9064604E00F
:101F2000FFF744F9801B02287ED8A8688007F7D500
:101F300014E0A86840084000A860316A012040030E
:101F400081433162FFF732F9064604E0FFF72EF9CC
:101F5000801B022868D8A8688007F7D4A06A0028E8
:101F60007ED0012809D0022807D05D21C900584839
:101F700001F0C8FBA06A002872D00326B6050C2F1A
:101F80006FD001273F06022806D02868B843286092
:101F9000FFF70CF9044677E0E06A002808D0012139
:101FA0000904884204D049494948333101F0AAFB69
:101FB000206B002823D00121890488421FD04900CA
:101FC00088421CD003218904884218D001210905C8
:101FD000884214D005218904884210D00321C90405
:101FE00088420CD007218904884208D00121490584
:101FF000884204D035493648343101F083FB012151
:10200000606B8905884209D04900884206D0B042F9
:1020100004D02E492E48353101F074FB2868B843AE
:102020002860FFF7C3F800E02CE0064604E0FFF765
:10203000BDF8801B022825D828688001F7D4216BC1
:10204000E06AEA680843616BFD231B049A4311436D
:102050000843E860286838432860FFF7A7F801E0E4
:102060002BE015E0044604E0FFF7A0F8001B02286F
:1020700008D828688001F7D51FE0FFF797F8001B04
:10208000022801D90320FEBD28688001F5D414E0A0
:102090000128F8D0E86801210904E26A0140914270
:1020A00009D10F218904226B0140914203D1616B58
:1020B0003040884201D00120FEBD0020FEBD00005E
:1020C000007000408813000000000140BE020000C4
:1020D000C81D0008704710B5044600684168C94330
:1020E000890603D54068C043400608D404206071C7
:1020F0002046FFF7EFFF60202168C043486020685A
:102100004168C943C90710D10168082291430160A1
:1021100020688168E1606079042806D00120607140
:1021200000202071204600F05DF810BD70B504005D
:102130000CD00F492068884203D0A3210DA001F0E4
:10214000E1FA60790025002802D005E0012070BD89
:102150002571204600F02AF802206071206801688D
:1021600004221143016001206071A560002070BD50
:10217000005002402E2E2F447269766572732F53E1
:10218000544D33324C3078785F48414C5F4472692B
:102190007665722F5372632F73746D33326C30789F
:1021A000785F68616C5F726E672E630008B50068C7
:1021B0000A49884210D10A48026B012109050A43E5
:1021C0000263006B00220840009011461D20FFF7BB
:1021D00083F81D20FFF752F808BD000000500240B0
:1021E0000010024070470000F8B504006ED05F494F
:1021F0002068884207D05E49884204D0FF214831D8
:102200005CA001F07FFA6068002807D0C11FFD398B
:1022100004D0FF21493157A001F074FAA0680028CA
:102220000BD001218902884207D04901884204D09D
:10223000FF214A314FA001F065FA0121E068C9028F
:10224000884206D0002804D0FF214B3149A001F07C
:1022500059FA0126A0697602B04209D0002807D0B9
:102260007102884204D0FF214C3142A001F04AFAA9
:10227000E069002812D0082810D010280ED01828A5
:102280000CD020280AD0282808D0302806D038289A
:1022900004D0FF214D3137A001F034FA206A002824
:1022A00006D0802804D0FF214E3132A001F02AFA56
:1022B000606A00280CD010281ED0FF214F312DA0BD
:1022C00001F020FA606A002802D015E00120F8BD74
:1022D0002069002806D0022804D0FF21523125A011
:1022E00001F010FA6069002806D0012804D0FF210F
:1022F000533120A001F006FA002725464035A76299
:10230000687C002803D12F74204600F04FF802208B
:10231000687420680168402291430160A168606888
:1023200022690843E1681143084361690843A169D0
:1023300031400843E1690843216A0843A16A084320
:1023400021680860A0690421000C0840616A084304
:10235000216848602068C1690122D2029143C161AD
:102360006765012068740020F8BD0000003001405E
:10237000003800402E2E2F447269766572732F53F9
:10238000544D33324C3078785F48414C5F44726929
:102390007665722F5372632F73746D33326C30789D
:1023A000785F68616C5F7370692E630010B586B0EA
:1023B000044614216846FDF7E8FE1049206888426B
:1023C00019D10F48816B0122920311438163C26AC4
:1023D00002210A43C262C06A0191084005900720A9
:1023E000400300900021032002910491039069466C
:1023F0000448FEF7FDFC06B010BD000000380040A8
:102400000010024000040050F8B50D460446006874
:1024100001218907884212D0274988420FD02749D5
:1024200088420CD02649884209D02649884206D0E5
:102430002549884203D0592124A001F063F9286876
:10244000002811D010280FD020280DD030280BD014
:10245000402809D0502807D0602805D0702803D024
:102460005A211AA001F04EF96868802805D000288A
:1024700003D05B2115A001F045F920462030017EF4
:10248000012916D0012707760221417623685A6870
:1024900099687026B2432E681643802291436A6879
:1024A0005E600A4321688A6047760021017608460B
:1024B000F8BD0220F8BD00000004004000100040FC
:1024C0000014004000080140001401402E2E2F444B
:1024D0007269766572732F53544D33324C3078786D
:1024E0005F48414C5F4472697665722F5372632F67
:1024F00073746D33326C3078785F68616C5F7469C7
:102500006D5F65782E63000070B5040058D001211E
:1025100020688907884213D03249884210D0324956
:1025200088420DD0314988420AD03149884207D0CB
:102530003049884204D0FF210C312FA001F0E2F88D
:10254000A06800280CD010280AD0202808D04028E5
:1025500006D0602804D0FF210D3127A001F0D2F869
:10256000206900280BD0C11FF93908D0C11FFF39DD
:10257000FA3904D0FF210E311FA001F0C3F82C4D11
:10258000E068A84204D9FF210F311BA001F0BAF87E
:102590006068A84204D9FF21103117A001F0B2F8F9
:1025A0006069002806D0802804D0FF21113112A0D4
:1025B00001F0A8F825462035687E002802D006E004
:1025C000012070BD00202876204600F033F802205C
:1025D0006876211D206800F00FFD0120687600203C
:1025E00070BD0000000400400010004000140040D6
:1025F00000080140001401402E2E2F4472697665B8
:1026000072732F53544D33324C3078785F48414CBD
:102610005F4472697665722F5372632F73746D33E2
:10262000326C3078785F68616C5F74696D2E63001E
:10263000FFFF000000680449884204D10348816B11
:1026400020221143816370470014004000100240B3
:1026500010B50446006801218907884213D0124949
:10266000884210D0114988420DD0114988420AD0C1
:102670001049884207D01049884204D0FF21813197
:102680000EA001F03FF8022120462030417621685B
:102690008A6801235207520F062A02D00A681A4399
:1026A0000A604376002010BD000400400010004086
:1026B0000014004000080140001401402E2E2F4459
:1026C0007269766572732F53544D33324C3078787B
:1026D0005F48414C5F4472697665722F5372632F75
:1026E00073746D33326C3078785F68616C5F7469D5
:1026F0006D2E630010B504460168012080078142F9
:1027000013D01248814210D0114881420DD0114897
:1027100081420AD01048814207D01048814204D03B
:10272000FF21B5310EA000F0EDFF2068C268012145
:102730000A43C260206882685207520F062A02D0FC
:1027400002680A430260002010BD0000000400403F
:102750000010004000140040000801400014014037
:102760002E2E2F447269766572732F53544D333277
:102770004C3078785F48414C5F4472697665722FBF
:102780005372632F73746D33326C3078785F686185
:102790006C5F74696D2E6300704770B50446006805
:1027A00001690025C9438907002915DBC168C943B0
:1027B000890711D4E91E0161012020762068806913
:1027C0008007204602D0FFF7E7FF04E000F078F82A
:1027D000204600F076F8257620680169C94349074C
:1027E00017D4C168C943490713D40421C9430161FF
:1027F00002202076206880698005800F204602D064
:10280000FFF7CAFF04E000F05BF8204600F059F83B
:10281000257620680169C943090716D4C168C943F0
:10282000090712D40821C9430161042020762068D9
:10283000C0698007204602D0FFF7AEFF04E000F039
:102840003FF8204600F03DF8257620680169C9432D
:10285000C90617D4C168C943C90613D41021C94396
:102860000161082020762068C0698005800F20461D
:1028700002D0FFF791FF04E000F022F8204600F0BC
:1028800020F8257620680169C943C90708D1C168C5
:10289000C943C90704D1891E0161204600F012F81E
:1028A00020680169C943490609D4C168C94349067A
:1028B00005D44021C9430161204600F00DF870BDE8
:1028C0007047704710B500680249884201D1FEF791
:1028D00073FC10BD00100040704770477047000047
:1028E000F8B502680446D0691168936805072D0F92
:1028F0005BD0DD07ED0FFF2621360E402E4367D05B
:10290000C60706D0CE0504D501261662E26F324313
:10291000E267870702220426002F06DADF0704D0C9
:1029200027683A62E76F3743E767470706D5DB0753
:1029300004D023681E62E36F1343E367020709D5DF
:1029400020220A402A4305D0236808221A62E36F36
:102950001343E367E26F002A2FD0800606D588066E
:1029600004D5216E002901D020468847E06F2168F8
:102970008968490601D4000724D5204600F0A8FC48
:1029800020688168490619D5816840229143816099
:10299000E06E002812D020498163E06EFEF7E6F970
:1029A00000280AD0E06E816B06E0850610D58D0602
:1029B0000ED5216E1CE020468847F8BD2046FFF763
:1029C0008DFFF8BD2046FFF789FF0020E067F8BDC6
:1029D000C50208D55B0206D501200005106220461D
:1029E000FFF77BFFF8BD030605D50B0603D5616E27
:1029F0000029E0D1F8BD4006FCD54806FAD5136899
:102A0000204640218B4313602021616700216166CD
:102A100000F0DEF8F8BD0000BD32000870B504001B
:102A200015D0A0692A4900282A4A2B4B2B4D2C4E41
:102A300020680ED088421BD0904219D0984217D0FF
:102A4000A84215D0B04213D0FF2130310DE0012053
:102A500070BD88420CD090420AD0984208D0A8425B
:102A600006D0B04204D0FF2135311EA000F04AFE4E
:102A7000606F002805D1002170200155204600F02C
:102A80004FF8242060672068016849084900016008
:102A9000204600F02DFC0128DAD0606A002802D020
:102AA000204600F0DDFA206841680922D2029143F5
:102AB0004160206881682A22914381602068016812
:102AC000012211430160204600F0C8FB70BD0000E8
:102AD0000038014000440040004C004000500040DD
:102AE000004800402E2E2F447269766572732F5372
:102AF000544D33324C3078785F48414C5F447269B2
:102B00007665722F5372632F73746D33326C307825
:102B1000785F68616C5F756172742E6300000000FD
:102B200070B586B0044614216846FDF72EFB244E8E
:102B3000256800232348042103220224B5421AD128
:102B4000856B0E0435438563C56A0D43C562C06A53
:102B5000009208400590062004900194029303928D
:102B600069461948FEF744F9002211461D20FEF778
:102B7000B3FB1D2020E0154EB5421FD1456B012649
:102B8000B60335434563C56A01263543C562C06A4D
:102B900004913040059003204002009005200194EC
:102BA0000293039269460007FEF722F900221146BC
:102BB0001B20FEF791FB1B20FEF760FB06B070BDEB
:102BC000004800400010024000080050003801405A
:102BD0007047FEE710B51248104A02600021C16339
:102BE000520542608160012307220361826302462D
:102BF000C16020321370FF235170C233436281627F
:102C0000117301638161042241634261C161FDF777
:102C1000FBFC002801D0FDF7EEFB10BD00240140B5
:102C2000B0010020F0B587B014216846FDF7ADFA79
:102C30004F48C16A04263143C162C16A31400591DF
:102C4000C16A80221143C162C16A11400591C16A03
:102C500001252943C162C16A29400591C26A022146
:102C60000A43C262C26A0A400592C16A082211433D
:102C7000C162C16A11400591C113052000220007FD
:102C8000FEF72EFA00223B493B48FEF729FA0022C4
:102C900040213A48FEF724FA3948032700240090DF
:102CA0006946019702943548FEF7A2F8354800902E
:102CB00005206946019702940007FEF799F832480B
:102CC0000090052002946946019503940007FEF7E1
:102CD0008FF80820009005200194694602940007AF
:102CE000FEF786F81120009028480190694602946A
:102CF0002148FEF77DF81F48694622380090019769
:102D000002941D48FEF774F81A4800900294694630
:102D1000019503941848FEF76BF840200090029448
:102D20006946019503941548FEF762F880200090EB
:102D300016480190694602941048FEF759F8694612
:102D40001348019700960294FEF752F800221146AC
:102D50000520FEF7C1FA0520FEF790FA0022114681
:102D60000720FEF7B9FA0720FEF788FA07B0F0BD92
:102D7000001002400810000000040050000800503D
:102D80003CFF0000F2190000048000000000111058
:102D9000000C005010B50C480A4901604B21C901D4
:102DA000416000218160C160016181610C2201628A
:102DB00042614162FFF732FE002801D0FDF71BFBA4
:102DC00010BD0000004800400C00002010B506496E
:102DD000044808600846FFF7A9F9002801D0FDF76C
:102DE0000AFB10BD005002400C01002010B50E4837
:102DF0000C490160FF210531416000218160C16003
:102E000001614161C161012201625202416282613C
:102E100081620721C162FFF7E7F9002801D0FDF7C1
:102E2000EAFA10BD003800401C0100201CB5002447
:102E30000E4800940C49019401601F218460416098
:102E40000B494461C160FFF75FFB002801D0FDF72B
:102E5000D2FA0094694605480194FFF7D5FA002894
:102E600001D0FDF7C8FA1CBD001400400C02002080
:102E7000FEFF000010B50C480A4901604B21C90152
:102E8000416000218160C16001618161C1610C22EA
:102E9000016242614162FFF7C1FD002801D0FDF7E8
:102EA000AAFA10BD003801408C00002070470000D5
:102EB0008307FF22DB0E9A408907090E99400028FC
:102EC0000BDA0007000F0838830808489B00181821
:102ED000C36993430B43C3617047830804489B0055
:102EE0001B181868904308431860704700ED00E015
:102EF00000E400E07047000010B50348FFF7EBF86E
:102F00000248FFF7EDFC10BD0C0100200C00002072
:102F10007047000010B59CB038216846FDF735F9C0
:102F2000142117A8FDF731F924210EA8FDF72DF97A
:102F3000174801680322D2029143C2148918016024
:102F400001200104009002200A90032080040C90CC
:102F5000880101910D900B916846FEF73DFD0F2011
:102F60001790032018900120002480021A901994D1
:102F700001211B9417A8FEF749FB45200E901094E1
:102F8000129416940EA8FEF7D3F91CB010BD0000E1
:102F90000070004010480168821511430160C1684B
:102FA0000E4A1140C16001680D4A114001608168FC
:102FB000490849008160016801229204914301603F
:102FC000C168FD2212049143C160002101610549DD
:102FD000C003886070470000001002400C40FF886A
:102FE000F6FFF6FE00ED00E010B50248FFF7D5FB56
:102FF00010BD000074010020F0B502680124A40790
:10300000144D154E154FA04205D0A84203D0B04232
:1030100001D0B84204D11346702293434A681A4340
:10302000A04205D0A84203D0B04201D0B84204D19A
:1030300003231B029A43CB681A4380239A430B69EC
:103040001A4302608A68C262096881620121416193
:10305000F0BD0000000400400008014000140140E1
:1030600070B50446406AFF2803D96A496AA000F097
:1030700049FBA08CC00711D00125A06A6D0400286F
:1030800006D0A84204D0634963A0491D00F03AFB72
:1030900020684168A26AA94311434160A08C80075F
:1030A00011D50125E06A2D04002806D0A84204D0DD
:1030B000584959A00C3100F025FB21684868E26AA4
:1030C000A84310434860A08C400711D50125206B10
:1030D000AD04002806D0A84204D04E494EA01331BA
:1030E00000F010FB20684168226BA9431143416046
:1030F000A08C000711D50125606BED03002806D0D8
:10310000A84204D0434944A01A3100F0FBFA2168D8
:103110004868626BA84310434860A08CC00611D574
:103120000125A06B2D03002806D0A84204D0394900
:1031300039A0213100F0E6FA21688868A26BA84323
:1031400010438860A08C800611D50125E06B6D03CB
:10315000002806D0A84204D02E492FA0283100F024
:10316000D1FA21688868E26BA84310438860A08C7C
:10317000400639D537492068884207D03649884209
:1031800004D0244924A02F3100F0BCFA0125206C82
:103190002D05002806D0A84204D01E491EA03031BB
:1031A00000F0B0FA21684868226CA84310434860D8
:1031B000206CA84218D10325606C6D0500280DD045
:1031C00001214905884209D04900884206D0A84219
:1031D00004D0104910A0353100F094FA21684868F5
:1031E000626CA84310434860A08C000611D50125ED
:1031F000A06CED04002806D0A84204D0054906A022
:103200003D3100F07FFA20684168A26CA943114368
:10321000416070BD9A0B00002E2E2F4472697665B6
:1032200072732F53544D33324C3078785F48414C91
:103230005F4472697665722F5372632F73746D33B6
:10324000326C3078785F68616C5F756172742E6380
:10325000000000000038014000440040F8B500269E
:103260000446C667FDF7A2FF054620680068124FB6
:10327000000709D501212B46002249052046009769
:1032800000F0EAF900280DD12068006840070BD54E
:1032900001212B46002289052046009700F0DCF929
:1032A000002801D00320F8BD20206067A0676034AB
:1032B00026740020F8BD0000FFFFFF0110B5806AF2
:1032C0000022014640314A834A82FFF707FB10BDC6
:1032D00001680A68FF2321339A430A6001688A68FB
:1032E000520852008A6020218167002101667047E0
:1032F000F8B504464068BB4910260025884203D330
:10330000B949BAA000F0FEF901210907A0680F141D
:10331000884208D0002806D0B84204D0B249B3A0F1
:10332000491C00F0EFF9C048226841148242E0686D
:1033300006D100281FD088421DD0AB49091D17E0D7
:10334000B8420CD000280AD003221203904206D0C3
:10335000884204D0AD210901A4A000F0D3F9206A6D
:10336000002808D00121C902884204D09E490931B1
:103370009EA000F0C7F9206900280CD00121890225
:10338000884208D003214902884204D0964997A078
:103390000C3100F0B7F960690C2102468A4301D173
:1033A000002804D1904991A00D3100F0ABF9A0693B
:1033B00000280FD0C11FF9390CD0C11FFF39FA39CD
:1033C00008D003210902884204D0874987A00E3122
:1033D00000F098F90127E069FF03002806D0B84201
:1033E00004D0814981A00F3100F08CF92169A068D7
:1033F000E2690843616911432268084311688B4BF5
:103400001940014311602168486803221203904368
:10341000E26810434860844A2168A069914201D063
:10342000226A10438A680B231B029A4302438A6074
:103430007F4922687F488A420CD1C0688007800F8C
:1034400006D001283ED002283AD0032826D124E015
:10345000012623E078498A420AD1C0680C2108403D
:103460002CD004282ED008282AD00C2816D114E0FD
:1034700072498A4222D072498A421FD06A498A42DE
:103480000CD1C16803208002014017D01015091A21
:1034900018D0091A14D0814200D108266549514834
:1034A000614B4039401E9A4234D1002E0CD0022E7E
:1034B0000DD0042E10D0082E1DD11AE00026EDE705
:1034C0000226EBE70426E9E7FEF72AFA06E0096898
:1034D000C90605D45B4803E0FEF742FA002872D023
:1034E000626851005118814205D81103814202D30C
:1034F00003E03846F4E7012565E0010E06025008B6
:10350000002330185941FCF709FE03210902411A32
:103510004D4A54E0E269BA4232D1330000F0D6F8A5
:1035200009070A0D06250606062B0600E3E7FEF747
:10353000F7F91CE0FEF704FA19E008686168C006B4
:1035400002D54808414A01E0414A48088018FCF782
:10355000CFFD80B201463F4A10399142CBD8511C71
:1035600001400007400F08432BE0FEF7F9F96168BE
:1035700040004A08EAE76168012248081204E5E7CA
:10358000330000F0A3F809070A0D06250606062BEE
:103590000600B0E7FEF7C4F91CE0FEF7D1F919E028
:1035A0000968C906616801D54A0801E025484A084A
:1035B0001018FCF79DFD80B20146264A1039914251
:1035C00099D82168C8600020206660662846F8BD4A
:1035D000FEF7C6F961684A088018EAE7616848089A
:1035E000C019E6E701093D00C80A00002E2E2F444D
:1035F0007269766572732F53544D33324C3078783C
:103600005F48414C5F4472697665722F5372632F35
:1036100073746D33326C3078785F68616C5F75619C
:1036200072742E630000000000480040F369FFEF51
:10363000003801404010024000440040004C00406F
:10364000005000400024F400FFFC0F0000127A003C
:103650000048E801EFFF0000FFB581B017460E46B5
:1036600004460A9D09E0681C07D0FDF79FFD0499F8
:10367000401AA8420CD8002D0AD02068C1693046F3
:10368000884318D00020B842EDD0002005B0F0BD2E
:1036900020680168FF22A13291430160206881689F
:1036A00049084900816020206067A06700206034DD
:1036B00020740320EAE70120E5E7000010B5024886
:1036C000FFF70EF910BD00008C00002030B47446E6
:1036D000641E2578641CAB4200D21D46635D5B000E
:1036E000E31830BC184702E008C8121F08C1002ABE
:1036F000FAD170477047002001E001C1121F002A73
:10370000FBD1704770470000044900220B685A62E1
:1037100009684A6A8242FCD3704700000C0200200C
:1037200070B5FCF737FE1348FDF77EFA7D21C9001E
:103730001048FDF7EFF9104D002202212846FDF751
:10374000CFFCFF201930FFF7DFFF0A48FCF72EFF00
:1037500084B22820FFF7D8FF012202212846FDF776
:10376000BFFC0648FFF7D0FF0248FDF7B7FA204636
:1037700070BD0000B001002000080050D0250000FE
:1037800010B5FCF719FE0848FDF74EFA7D21C90077
:103790000548FDF7BFF90448FCF708FF84B202486A
:1037A000FDF79CFA204610BDB0010020FDF70CFD8E
:1037B000FFF7B0FBFFF736FAFFF708FBFFF716FB42
:1037C000FFF758FBFFF7E6FAFFF704FAFFF72EFBC7
:1037D0000848FEF73DFF084CFFF7A2FF2080642059
:1037E000FDF7EAFAFFF7CCFF60806420FDF7E4FA0A
:1037F000F2E700000C0200200000002000000000A2
:10380000000000000102030406070809030406087B
:103810000C1018203000000000010203040000001A
:1038200040380008000000200C000000E6360008C8
:103830004C3800080C0000203C060000F63600085A
:0C3840000000000000000000000020005C
:04000005080000C12E
:00000001FF
