:020000040800F2
:1000000098090020D500000805470008F93C0008C1
:1000100000000000000000000000000000000000E0
:100020000000000000000000000000007F48000801
:1000300000000000000000004D470008E500000837
:10004000E7000008E7000008A1470008E7000008F3
:10005000E700000819090008E70000082309000864
:10006000E7000008E7000008E7000008E7000008D4
:10007000E7000008E7000008E7000008E7000008C4
:10008000E7000008E54E0008E70000080000000057
:10009000E7000008E7000008E7000008E7000008A4
:1000A000E7000008E7000008E700000869560008BC
:1000B000E70000085147000800000000E7000008C2
:1000C0000348854600F00AFB0048004785600008A9
:1000D000980900200448804704480047FEE7FEE7EF
:1000E000FEE7FEE7FEE7FEE7914E0008C1000008CC
:1000F00030B50B46014600202022012409E00D46C0
:10010000D5409D4205D31D469540491B2546954047
:1001100040191546521E002DF1DC30BD70B500248B
:100120002546002801DA01244042002901DA012590
:100130004942FFF7DDFFAC4200D04042002C00D026
:10014000494270BDF0B51FB40646002082B0054696
:100150004024019100901BE0019922460F46304651
:1001600000F066F9049A059B801A994110D3104655
:100170001946224600F04CF9361A8F410197224663
:1001800001200021009F00F043F938184D410090F4
:100190002046641E0028DFDC019B00982946324679
:1001A00007B0F0BD03460B439B0703D009E008C925
:1001B000121F08C0042AFAD203E00B780370401C17
:1001C000491C521EF9D27047D2B201E00270401CA5
:1001D000491EFBD270470022F6E710B513460A46C7
:1001E00004461946FFF7F0FF204610BDF0B51FB4D6
:1001F00088B00B990998002448400999C00F49001C
:1002000049080991C0070B990090490049080B91D2
:1002100009990898A64608431CD00B990A980843E8
:1002200018D0099801244000420D4800410D09985A
:1002300024050003000B204309900B980003000BDA
:1002400020430B9050181C4940180022019014467E
:10025000104605E0002001460DB0F0BD032801DA8C
:10026000034600E003239C46C11A0AAE0AE05F0081
:1002700008ADED5B4F00F75B7D430027AA187C417A
:10028000491C5B1E6145F2DD410004AB5A5221045A
:10029000120C0A43240C401C0828DFDB0198029052
:1002A0000099704601910090059B049A0799069861
:1002B00000F0DCF8D0E700000DFCFFFFF0B50C46C5
:1002C0005C4085B0E40FE40703944C00002664080A
:1002D00059009446490802460296224321D06246BC
:1002E0000A431ED06200570D4A000E032303550D2A
:1002F000012402462C492405781B1B0B360B4018A1
:1003000023432643614600901C46501AB44103D350
:100310000098401C009002E0921800985B41002871
:1003200003DA0020014605B0F0BD002001210905D7
:100330000746864611E064461D46141BB54106D3A8
:100340006546521BB341744607430C43A646CD078E
:1003500040084908284392185B4105460D43EAD1FD
:100360001046184313D06046194650407140084368
:1003700006D06046101AB34106D20122002306E0DF
:1003800000220123DB0702E00122D2435310009830
:1003900074460105381C6141029C039D00196941A6
:1003A00000F057F8BFE70000FD0300004A00090312
:1003B0000123090B1B051943094B10B5520D9A4235
:1003C00001DA002010BD064B34339A4203DC9A1A3E
:1003D00000F02EF810BD03495118884010BD0000F0
:1003E000FF030000CDFBFFFFC20FD2074000400813
:1003F0000BD0C10D0723DB01C91840020905400AD3
:100400001143C2084007114370470020014670475E
:1004100010B5202A04DB0146203A9140002010BD8F
:10042000914020239C1A0346E3401943904010BD9D
:1004300010B5202A04DB0846203AD040002110BD28
:100440000B46D340D0402024A21A914008431946BD
:1004500010BD10B5002B08DA0024401C6141921831
:100460005B411A4301D14008400010BDF0B51FB4F4
:1004700082B005460C0003D0084605F021F902E0E1
:1004800005F01EF920300246009021462846FFF76D
:10049000BFFF049B059A04460F46184311430843C7
:1004A00014D0184610431BD0009840210A1A184651
:1004B0000599FFF7BDFF05460E46009A0599049879
:1004C000FFF7A6FF084305D0012004E02046394687
:1004D00007B0F0BD0020C11705430E432C4337433E
:1004E00000990E986305401A7905E40A00220C432E
:1004F000FD0A0A3002D500200146E9E7010510197E
:1005000069410C9C0D9D00196941FFF7A2FFDFE7CF
:10051000F0B507460846584087B0C00F0490480021
:100520000E46590040084908BC1A884105D2384691
:1005300031461E4617460B460246580040081043F7
:100540004CD0300D039040055900400D490D0590E9
:10055000401A0290402872DA18030121000B0905A5
:100560000843019004980092002805D00199524256
:100570000020884100920190029840210A1A0199B6
:100580000098FFF745FF05460C466B4607CB00F089
:10059000B7F8C0197141039A0E0D0023D7175640C2
:1005A0001A467A40164344D0049A002A2DD0029A63
:1005B000012A039A15DC1205C01A9141012636055D
:1005C000001C7141D20F059ED20700930192029642
:1005D0002A462346FFF74AFF07B0F0BD38463146AA
:1005E000FAE71605224A0F46B218C01AB741012190
:1005F0000905001C4F4100187F4111461818794128
:10060000E20F10436D19644113E0E2076D081543D2
:100610006408C2071443039A01261205C01A9141C7
:100620003605001C7141CE07400830434908C01808
:1006300051412A462346FFF70CFFCDE7FFE7049818
:1006400001224000C117121A00238B410498314641
:10065000C417381AA141EEE730B40124E40763401F
:1006600030BC55E730B40124E407614030BC4FE7AB
:100670000000E0FF4A0009030123090B1B05194391
:100680000A4B10B5520D9A4202DA0020014610BD05
:10069000064B34339A4203DC9A1AFFF7C9FE10BDA9
:1006A000034BD218FFF7B4FE10BD0000FF0300009B
:1006B000CDFBFFFF10B5002904DB0124E407404215
:1006C0008C412146002B04DB1C460123DB075242F0
:1006D000A341994200D1904210BD0000064C012573
:1006E000064E05E0E36807CC2B430C3C98471034DA
:1006F000B442F7D3FFF7E8FC4462000864620008E4
:1007000010B5202A06DBCB170846203A1041C11746
:100710000B4306E00B461341D0402024A21A91401F
:100720000843194610BD30B58C180278401C1307D9
:100730001B0F01D10378401C120906D10278401C1E
:1007400003E005780D70401C491C5B1EF9D101E0E7
:100750000B70491C521EFBD1A142E6D3002030BDD4
:1007600070B5044600681749884203D0164917A09F
:1007700005F035FC20688168490720D5816810267E
:100780004907002905DA8168890702D48168314365
:10079000816001F0BFF805460DE001F0BBF8401B99
:1007A0000A2808D9606D30436065A06D01210843B7
:1007B000A065084670BD206880684007EDD4002021
:1007C00070BD000000240140F50700002E2E5C449F
:1007D0007269766572735C53544D33324C3078785D
:1007E0005F48414C5F4472697665725C5372635C2A
:1007F00073746D33326C3078785F68616C5F6164FC
:10080000632E630038B50446064805490068FFF7C3
:100810006FFC604300E0401E00900028FBD138BD13
:1008200040420F000C000020F8B5044600688168C3
:100830008907890F012925D10168C90722D081685C
:10084000052211401025012601290FD181680222BD
:100850001143816021680320086001F05BF80746BE
:100860000CE001F057F8C01B0A2807D9606D284337
:100870006065A06D3043A0650120F8BD20688068E8
:10088000C007EED10020F8BDF8B5044600688168C5
:100890008907890F012902D10168C90722D181681E
:1008A000114A10261140012500290ED181682943E3
:1008B00081600120FFF7A6FF01F02CF807460CE04D
:1008C00001F028F8C01B0A2807D9606D3043606525
:1008D000A06D2843A0650120F8BD20680068C043D2
:1008E000C007EDD10020F8BD1700008003F058FDCF
:1008F000FEE70000074910B500200A468870403A1C
:10090000D087888010390882104614210C30FFF7F8
:1009100062FC10BDA400002010B5012000F010FE04
:1009200010BD10B5102000F00BFE802000F008FE76
:1009300010BD704710B5214A00219069C3052048B9
:1009400004D54169022319434161911593699B05BF
:1009500005D5436901242343436163021943936925
:100960005B0505D54369082423434361E30119432B
:1009700093691B0505D5436904242343436163023E
:10098000194393699B0405D54369102423434361AC
:100990006302194393699B0304D5446920231C43D4
:1009A000446119439369DB0305D54369402423431C
:1009B0004361A0020143916110BD0000002002408C
:1009C0008004002070B5054600F0A4FF0646184CD0
:1009D0000AE0681C08D0002D04D000F09BFF801BAB
:1009E000A84201D9032070BDA069C007F1D1A06958
:1009F000800701D50220A061A069C00511D4A069BB
:100A000080050ED4A06940050BD4A069000508D468
:100A1000A069800405D4A069800302D4A069C00342
:100A200003D5FFF787FF012070BD002070BD0000D7
:100A300000200240F8B50D46064600684E4988423F
:100A400004D0CD21C9004DA005F0C9FA28680128BD
:100A500036D05849884233D04900884230D0564970
:100A600088422DD0554988422AD05549884227D0FE
:100A70005449884224D05449884221D0534988425D
:100A80001ED0534988421BD05249884218D052493F
:100A9000884215D05149884212D0514988420FD01E
:100AA000504988420CD05049884209D04F49884269
:100AB00006D04F49884203D04E4930A005F08FFA46
:100AC0000121090368684C1C884206D0A04204D06A
:100AD00048492AA0491C05F082FA37464037387C3D
:100AE00001280DD00120387430688168490709D584
:100AF000706D202108437065002038740120F8BD16
:100B00000220F8BD234601216A68C9053A4C9A4281
:100B10001AD0002282623068826A2B685B035B0B0A
:100B20001A4382622868400305D5A0680843A06084
:100B30000A20FFF767FE2868800319D5A068012105
:100B400089050843A06013E0826A2B685B035B0B96
:100B50009A4382622868400302D5A0688843A06057
:100B60002868800304D5A168012080058143A16025
:100B700000203874F8BD0000002401402E2E5C4493
:100B80007269766572735C53544D33324C307878A9
:100B90005F48414C5F4472697665725C5372635C76
:100BA00073746D33326C3078785F68616C5F616448
:100BB000632E6300020000040800000C1000001007
:100BC00020000014400000188000001C00010020DC
:100BD00000020024000400280008002C001000304F
:100BE00000200034004000380080003C0000044831
:100BF00000000244690600000027014010B50446C9
:100C000000680549884203D0044905A005F0E7F9CA
:100C10002068006C10BD0000002401407605000033
:100C20002E2E5C447269766572735C53544D333278
:100C30004C3078785F48414C5F4472697665725CED
:100C40005372635C73746D33326C3078785F6861B3
:100C50006C5F6164632E6300F8B504007ED0FE49CA
:100C60002068884204D0FF216E31FCA005F0B7F95E
:100C70006068002838D003218907884234D049426F
:100C8000884231D0490088422ED0490B88422BD06F
:100C90004900884228D003218904884224D00121B8
:100CA0000905884220D00521890488421CD00321EF
:100CB000C904884218D007218904884214D0012130
:100CC0004905884210D00921890488420CD00521A9
:100CD000C904884208D00B218904884204D0FF212E
:100CE0006F31DEA005F07BF9A06800280AD0082843
:100CF00008D0102806D0182804D0FF217031D7A0C2
:100D000005F06DF9E068002806D0202804D0FF2106
:100D10007131D2A005F063F92069012806D00228BC
:100D200004D0FF217231CDA005F059F925462035B8
:100D30002878002806D0012804D0FF217331C7A0ED
:100D400005F04DF96878002806D0012804D0FF216D
:100D50007431C2A005F043F9A06A00E097E00028D2
:100D60000FD00121890288420BD04900884208D067
:100D700003218902884204D0FF217531B7A005F014
:100D80002EF9606A00281DD040281BD0802819D079
:100D9000C02817D0C11FF93914D00146FF39413995
:100DA00010D00146FF3981390CD00146FF39C139D5
:100DB00008D00146FF39C23904D0FF217631A7A0FF
:100DC00005F00DF9287B002806D0012804D0FF216A
:100DD0007731A2A005F003F96069042806D008283D
:100DE00004D0FF2178319DA005F0F9F8206B002890
:100DF00008D001210903884204D0FF21793197A04E
:100E000005F0EDF8A069002806D0012804D0FF21E4
:100E10007A3192A005F0E3F8606B002806D0012833
:100E200004D0FF217B318DA005F0D9F8E0690028BE
:100E300006D0012804D0FF217C3188A005F0CFF82E
:100E4000A06B002812D0012810D002280ED0032851
:100E50000CD004280AD0052808D0062806D0072878
:100E600004D0FF217D317DA005F0B9F8E06B0028AA
:100E700006D0012804D0FF217E3178A005F0AFF81C
:100E8000606D274600264037002802D006E001208A
:100E9000F8BDA6653E74204600F02EF9606DC006D0
:100EA00003D420688168490705D5606D1021084387
:100EB00060653E74EBE7616DFF270137B94302229D
:100EC0001143616581688A07920F7249012A02D134
:100ED0000268D2072BD1032362689B079A4205D090
:100EE0005B429A4202D05B009A4209D102699200A9
:100EF000920802612068026963681A4302610CE08B
:100F0000026992009208026188680F22920490435D
:100F1000886088686268104388602068C268182307
:100F20009A43C2602068C268A3681A43C260886896
:100F300001225206904388608868A28E52061043B0
:100F4000886020688168C90004D481680122120782
:100F5000114381602068C1684F4A1140C160216916
:100F6000E068022922D00021084329782A7B49031E
:100F7000520011430843216B0843A16989030843C8
:100F8000E169C90308432168CA681043C860606A00
:100F90000146FF39C23905D0A16A08432168CA68F1
:100FA0001043C8606878012802D00CE00421DBE718
:100FB0002878002824D0606D202108436065A06D4A
:100FC00001210843A065E06B012820D02068016959
:100FD000C90703D0016949084900016120684169D6
:100FE000C908C900416120684169A26B1143416190
:100FF000A665606D80088000401C60650020F8BD1B
:101000002068C168012212041143C160DBE7206C33
:10101000002811D004280FD008280DD00C280BD0A0
:10102000102809D0142807D0182805D01C2803D070
:101030001A490AA004F0D3FF606C002838D0202899
:1010400036D0402834D0602832D0802830D0A02834
:101050002ED0C0282CD023E0002401402E2E5C444A
:101060007269766572735C53544D33324C307878C4
:101070005F48414C5F4472697665725C5372635C91
:1010800073746D33326C3078785F68616C5F616463
:10109000632E6300002701401902FEFF0D020000CD
:1010A000E02805D0B84203D01149124804F097FF58
:1010B000A06C002808D0C11FFF39FA3904D00C49B0
:1010C0000C48491C04F08BFF20680169FF22920044
:1010D0009143016121680869226CA36C1043626C22
:1010E0001A4310430861206801690122114374E723
:1010F0000E0200005C10000830B587B004461421D1
:101100006846FFF768F814492068884222D11348DE
:10111000416B421511434163C26A04210A43C26212
:10112000C26A0A400592C26A01210A43C262C06AC9
:1011300003240840059000256A4632C269460848E3
:1011400000F00AFA02206A4631C20520694600070B
:1011500000F002FA07B030BD002401400010024048
:1011600000080050F8B50E4604460068324988422F
:1011700003D0324932A004F032FF25466069403581
:1011800008280BD02068C068C00709D0606D2021F6
:1011900008436065002028740120F8BD082700E09E
:1011A0000C2700F0B7FB009012E0701C10D0002E4E
:1011B00006D000F0AFFB01460098081AB04207D9EC
:1011C000606D042108436065002028740320F8BD89
:1011D000206800683842E8D0606D01214902084368
:1011E00060652068C16809058A0F0C21002A1BD19F
:1011F0002022125D002A17D10268120714D58268D6
:1012000053070122002B08DB43688B434360606D6A
:10121000130298431043606506E0606D2023184375
:101220006065A06D1043A065A069002801D1206809
:1012300001600020F8BD0000002401407903000097
:101240002E2E5C447269766572735C53544D333252
:101250004C3078785F48414C5F4472697665725CC7
:101260005372635C73746D33326C3078785F68618D
:101270006C5F6164632E630070B5044600681A49B0
:101280000025884204D00321090218A004F0A7FE1B
:1012900020688068400724D426464036307C0128E8
:1012A0000AD001203074E069012807D02046FFF7FA
:1012B000EBFA050002D015E0022070BD606D1949FF
:1012C0000840FF210131084360650020A0653074AB
:1012D00021681C2008602068816804221143816015
:1012E00000E00225284670BD002401402E2E5C44FB
:1012F0007269766572735C53544D33324C30787832
:101300005F48414C5F4472697665725C5372635CFE
:1013100073746D33326C3078785F68616C5F6164D0
:10132000632E6300FEF1FFFF70B5044600681249AA
:10133000884203D0114912A004F051FE25464035E1
:10134000287C012807D001262E742046FFF708FAD2
:10135000002802D00CE0022070BD2046FFF764FA9E
:10136000002805D1616DFF2201329143314361654F
:101370000021297470BD00000024014042030000D8
:101380002E2E5C447269766572735C53544D333211
:101390004C3078785F48414C5F4472697665725C86
:1013A0005372635C73746D33326C3078785F68614C
:1013B0006C5F6164632E630070B5002401462031C8
:1013C0004A79022A03D00421C163012418E002688B
:1013D00013680E25AB431360026813685B085B005B
:1013E0001360436C1C221340012215469D40036C80
:1013F0005D604A7100220A71816B002900D0884724
:10140000204670BD70B5044600F084FA0546601CA5
:1014100000D0641C00F07EFA401BA042FAD370BDDD
:10142000054841680222114341604168012211438D
:10143000416000207047000000200240F8B5164CC3
:101440000D46217C174601291DD001212174022857
:1014500003D0EF2111A004F0C2FD0120C006854297
:1014600006D31D49898F090489090818A84203D8A1
:10147000F0210AA004F0B3FD1848FFF7A3FA0026F4
:10148000002802D006E00220F8BD66612F601348F4
:10149000FFF798FA2674F8BD800400202E2E2F4402
:1014A0007269766572732F53544D33324C307878AD
:1014B0005F48414C5F4472697665722F5372632FA7
:1014C00073746D33326C3078785F68616C5F666C12
:1014D0006173682E630000004000F81F50C30000D5
:1014E00011484168C9070BD0EFF3108172B60F4A5B
:1014F000C2600F4AC26081F310884168C9070ED1EB
:10150000416889070DD5EFF3108172B6094A02616F
:10151000094A026181F310884068800701D50120E3
:10152000704700207047000000200240EFCDAB89DB
:1015300005040302BFAE9D8C1615141370470000FE
:1015400010B504494A69024202D04861FFF7F6FF2C
:1015500010BD000000040140F8B5044648680027AB
:101560000D4600281FD001281DD011281BD00228AD
:1015700019D0122817D09649884214D0954988422C
:1015800011D0954988420ED0944988420BD0944995
:10159000884208D09349884205D0032803D0AE2161
:1015A00091A004F01CFDA868002807D0012805D0F0
:1015B000022803D0AF218CA004F011FD0520000704
:1015C000844204D128680104090C25D109E095481A
:1015D000844206D128680104090C0CD0000C2CD0E0
:1015E00009E09148844206D128680104090C0CD016
:1015F000000CF4D009E08D48844206D1286801042B
:10160000090C0BD0000CEAD008E08948844205D1CF
:1016100028680104090C0CD0000C08E085488442BD
:1016200007D185492868084203D0C94308400028EB
:10163000D5D0B0216CA004F0D2FCC3E00121B940A8
:10164000064600910E407DD06868022801D012281D
:101650002AD105200007844212D0724884420FD05C
:10166000714884420CD07148844209D07048844249
:1016700006D07048844203D0BF215BA004F0AFFCC9
:101680002869072803D9C02157A004F0A8FCF8084E
:1016900080000319186A7907CA0E0F219140884308
:1016A00029699140014319626868012805D0022820
:1016B00003D0112801D012281ED1E868002809D0D3
:1016C000012807D0022805D0032803D0CE2146A048
:1016D00004F085FCA1687A00032090408143E8680B
:1016E00090400843A0606068009988432979C90642
:1016F000C90FB9400143616023687A00032090401C
:10170000297983438907890F914019432160E16852
:101710008143A86890400843E0606868C00050D5E5
:101720004648416B012211434163B908444889008E
:101730000B189868B9070A0F0F21914088430521BB
:10174000090700E03DE08C4201D1002119E0354954
:101750008C4201D1012114E033498C4201D1022194
:101760000FE032498C4201D103210AE030498C421A
:1017700001D1042105E02F498C4201D1052100E06F
:1017800006219140014399602E4908686A68B04378
:10179000D20300D53043086048686A68B0439203BA
:1017A00000D53043486088686A68B043D20200D5EB
:1017B00030438860C8686A68B043920200D53043FD
:1017C000C8607F1C2E683046FE4000D036E7F8BD6A
:1017D0000000111000002110000031100000121054
:1017E00000002210000032102E2E2F447269766500
:1017F00072732F53544D33324C3078785F48414CDC
:101800005F4472697665722F5372632F73746D3300
:10181000326C3078785F68616C5F6770696F2E63D7
:10182000000000000004005000080050000C0050B0
:1018300000100050001C0050030600000010024081
:101840000000014000040140F8B516460C4605466C
:1018500005273F071A481B491B4A1C4BBD4210D0A5
:10186000854202D1002C1DD104E08D4202D1002C12
:1018700018D104E0954202D1002C13D104E09D421E
:1018800002D1002C0ED108E01148854205D1114843
:10189000044202D0C043044204D0FF219D310EA077
:1018A00004F09DFB002E08D0012E04D0FF219E31B4
:1018B00009A004F094FBAC61F8BDAC62F8BD000077
:1018C0000004005000080050000C005000100050B0
:1018D000001C0050030600002E2E2F44726976650E
:1018E00072732F53544D33324C3078785F48414CEB
:1018F0005F4472697665722F5372632F73746D3310
:10190000326C3078785F68616C5F6770696F2E63E6
:101910000000000001480068704700000800002037
:1019200002480168491C016070470000080000205F
:1019300010B5084800240168402211430160204688
:1019400000F00AF8002801D0012401E000F03EF880
:10195000204610BD0020024000B5014687B000229D
:10196000112000F06DF8112000F03CF81248816B56
:1019700010221143816305A9684600F0B5FB00F011
:10198000FFFB40000D49FEF7B3FB0E490C4A0A600D
:101990000D4A401ECA604860002008618860084601
:1019A00001F058FD002802D0012007B000BD054815
:1019B00001F046FEF9E700000010024040420F002F
:1019C0000010004020040020E70300000448416BA1
:1019D000012211434163816B02041143816370470B
:1019E0000010024010B5040003D5972104A004F0B4
:1019F000F6FAE106C90E012088401049086010BDC2
:101A00002E2E2F447269766572732F53544D3332E4
:101A10004C3078785F48414C5F4472697665722F2C
:101A20005372632F73746D33326C3078785F6861F2
:101A30006C5F636F727465782E63000000E100E0F4
:101A400070B50C460546042903D3872103A004F092
:101A5000C6FA2146284602F057FE70BD2E2E2F44AE
:101A60007269766572732F53544D33324C307878E7
:101A70005F48414C5F4472697665722F5372632FE1
:101A800073746D33326C3078785F68616C5F636F4C
:101A9000727465782E63000010B50446FF38013873
:101AA0000CD0E01FFF38FA3808D0012080028442B1
:101AB00004D0FF21BE3104A004F091FA104841681F
:101AC000A143416010BD00002E2E2F44726976653F
:101AD00072732F53544D33324C3078785F48414CF9
:101AE0005F4472697665722F5372632F73746D331E
:101AF000326C3078785F68616C5F7077722E63004B
:101B00000070004010B50446FF3801380CD0E01FCB
:101B1000FF38FA3808D001208002844204D0FF2127
:101B2000AD3104A004F05BFA1048416821434160E4
:101B300010BD00002E2E2F447269766572732F53EC
:101B4000544D33324C3078785F48414C5F44726971
:101B50007665722F5372632F73746D33326C3078E5
:101B6000785F68616C5F7077722E63000070004070
:101B700005480168022211430160044801690422FA
:101B80001143016130BF70470070004000ED00E07C
:101B9000F8B504460068A249884203D96721A1A08C
:101BA00004F01DFA2078AE4D800674D560680028D8
:101BB0001AD001210904884216D04900884213D066
:101BC0000321090488420FD01321090488420BD055
:101BD00023210904884207D033210904884203D015
:101BE000732190A004F0FBF99D4E0027403EB06B9E
:101BF000C00004D4B06B31040843B0630127994896
:101C00000168C90511D40168821511430160FFF70D
:101C100081FE009005E0FFF77DFE0099401A6428E0
:101C200037D890480068C005F5D53268032109050A
:101C300060680A400140914208D08103890F03295E
:101C400004D13168890301D50120F8BD2A69032137
:101C500009040A4023D00840904220D02078800612
:101C60001DD528692A6988430121C9040A432A61CC
:101C70002A698A432A612861C00510D5FFF74AFE08
:101C8000009009E0FFF746FE0099411A764881422C
:101C900002D90320F8BD1BE028698005F2D56168F0
:101CA0008803800F032805D1326800058243014074
:101CB0000A43326028690322616812041140084314
:101CC0002861002F04D0B06B012109078843B0635D
:101CD0002078C00712D0A068002809D0012807D0BA
:101CE000032805D0022803D0DE214EA004F077F9A6
:101CF000E868A168800880000843E86020788007D1
:101D000012D5E068002809D0042807D00C2805D097
:101D1000082803D0E92143A004F061F9E8680C2108
:101D20008843E1680843E8602078400716D5032619
:101D30002069B60200280CD001218902884208D00F
:101D4000B04206D04900884203D0F32135A004F008
:101D500046F9E8682169B0430843E8602078000745
:101D600014D5606900280AD001210903884206D0F1
:101D70004900884203D0FD212AA004F030F9E86828
:101D800003210903884361690843E8602088C0058E
:101D900015D5A06900280BD001210904884207D07D
:101DA0004900884204D0FF2109311EA004F017F930
:101DB000E868032109048843A1690843E8602078A2
:101DC000400610D50126206AB606B04206D000288B
:101DD00004D0FF21143113A004F001F9E868216A4E
:101DE000B0430843E8602078000617D50326E06971
:101DF000B60400280DD001218904884209D0490089
:101E0000884206D0B04204D0FF211C3105A004F066
:101E1000E6F8E868E169B0430843E860002039E784
:101E2000FF0100002E2E2F447269766572732F53C6
:101E3000544D33324C3078785F48414C5F4472697E
:101E40007665722F5372632F73746D33326C3078F2
:101E5000785F68616C5F7263635F65782E63000012
:101E6000401002400070004088130000F8B50E4694
:101E7000050075D02868C10709D1810707D441073B
:101E800005D4000703D4824982A004F0A8F8002EEC
:101E900006D0012E04D07E497EA0491C04F09FF894
:101EA0008A480068C007C00FB0420AD2874801685C
:101EB00049084900314301600068C007C00FB042C3
:101EC0004ED12878824C80071DD5A868002814D0F0
:101ED000802812D0902810D0A0280ED0B0280CD086
:101EE000C0280AD0D02808D0E02806D0F02804D096
:101EF000674968A0183104F072F8E068F02188435F
:101F0000A9680843E0602878C00763D068680028A3
:101F100011D001282BD0022823D0032824D05C49DB
:101F20005CA01F3104F05BF86868022819D0032810
:101F30001AD001281BD02068800500285ADAE068F2
:101F40006968800880000843E060FFF7E3FC696887
:101F50000746022914D003291ED0012928D035E0D4
:101F600048E020688003E8E720688001E5E7206812
:101F70004007E2E7FFF7CEFCC11B5648814223D859
:101F8000E0680007800F0228F4D123E0FFF7C2FCCD
:101F9000C11B5048814217D8E0680007800F032812
:101FA000F4D117E0FFF7B6FCC11B4A4881420BD8B9
:101FB000E0680007800F0128F4D10BE0FFF7AAFCCE
:101FC000C11B4448814201D90320F8BDE0680007E5
:101FD000800FF3D13D480168C907C90FB1420BD941
:101FE000016849084900314301600068C007C00F1B
:101FF000B04201D00120F8BD2878374F374E400756
:1020000018D5E868002810D0B8420ED00521090282
:1020100088420AD003214902884206D0B04204D047
:102020002D491CA0163903F0DAFFE068E968B043D7
:102030000843E060287800071BD52869002810D0E5
:10204000B8420ED00521090288420AD00321490274
:10205000884206D0B04204D01F490EA00F3903F0C9
:10206000BEFFE0680721C90288432969C900084307
:10207000E06000F0A5F8E168194A0906090F515C13
:10208000C840184908600020FFF766FCF8BD000052
:10209000660300002E2E2F447269766572732F53EB
:1020A000544D33324C3078785F48414C5F4472690C
:1020B0007665722F5372632F73746D33326C307880
:1020C000785F68616C5F7263632E6300002002407A
:1020D0000010024088130000000400000007000008
:1020E000126200080C00002070B50D46040003D1F8
:1020F000124913A003F073FF002D04D10F4910A063
:10210000491C03F06CFF0F2020601B48C168890741
:10211000890F6160C168F0221140A160C268072187
:1021200009020A40E260C068C00808402061134804
:102130000068C007C00F286070BD00008305000064
:102140002E2E2F447269766572732F53544D33329D
:102150004C3078785F48414C5F4472697665722FE5
:102160005372632F73746D33326C3078785F6861AB
:102170006C5F7263632E6300001002400020024017
:10218000044805490068C968044A4905490F515C7B
:10219000C84070470C000020001002402B6200086D
:1021A000044805490068C968044A8904490F515C1C
:1021B000C84070470C000020001002402B6200084D
:1021C00010B5184AD1680C20084004280BD0082804
:1021D00010D00C2810D050680004410F0120C0031B
:1021E000491C884010BD1068C00601D50E4810BDBE
:1021F0000E4810BD0E4810BD88020E4B000F185C33
:102200000902D368890F491CDB0301D5084A05E0A0
:102210001268D20601D5044A00E0044A5043FDF793
:1022200067FF10BD0010024000093D000024F400CB
:1022300000127A0022620008FEB504007ED02068F9
:10224000002810D0C1070ED181070CD481060AD412
:10225000010708D4410706D4C00604D4FF21613128
:10226000F1A003F0BCFEFE4DEF680C20EE680740C5
:102270000120000406402078C00758D0606800287C
:102280000CD001210904884208D0052109048842A4
:1022900004D0FF216A31E4A003F0A1FE082F05D08D
:1022A0000C2F0AD101200004864206D12868800341
:1022B0003DD560680028C1D039E001206168000484
:1022C000814202D12968014312E0052212049142A1
:1022D000296804D10122920411432960F2E7814365
:1022E0002960296801400091296801208004814308
:1022F0002960606800280DD0FFF70CFB009005E016
:10230000FFF708FB0099401A64287AD828688003F0
:10231000F6D50CE0FFF7FEFA009005E0FFF7FAFAB9
:102320000099401A6428F0D828688003F6D42078F1
:10233000800777D5E068002810D000E0EBE20128A4
:102340000CD009280AD0202808D0212806D0292816
:1023500004D0FF219D31B4A003F041FE20691F2865
:1023600004D9FF219E31B0A003F039FEE068810658
:1023700004D52A6820210A432A6088430921042FB2
:102380000DD00C2F01D1002E09D000283AD02A6898
:102390008A4302432A60FFF7BDFA064625E02A6811
:1023A000520701D5002886D06A681F231B029A4372
:1023B00023691B021A436A602A688A4302432A601F
:1023C000FFF7FEFEE96809060A0FA649895CC840C6
:1023D000A54908600020FFF7BFFA00287ED121E060
:1023E000FFF798FA801B02288FD828684007F7D596
:1023F00068681F210902884321690902084368604F
:1024000010E041E22868400840002860FFF782FAA7
:10241000064604E0FFF77EFA801B0228E4D828680D
:102420004007F7D42078C00664D50126F603002FB4
:1024300015D0E06900287DD0012807D04321C900CC
:1024400079A003F0CCFDE0690028F4D02868FF21D2
:10245000013108432860FFF75DFA009051E02868D9
:10246000800502D5E06900289DD0206AFF2804D9A4
:10247000012149026CA003F0B2FD606A002818D067
:1024800001214903884214D04900884211D0032118
:10249000490388420DD0B0420BD005214903884240
:1024A00007D003218903884203D070495EA003F05E
:1024B00096FD6868072149038843616A084368609C
:1024C0006868218C0002000A090608436860606A97
:1024D000400B401C8640E868000600E07EE0010FEB
:1024E0006048405CC640604806600020FFF734FA50
:1024F000002873D14FE0FFF70DFA0099401A022827
:102500008CD828688005F6D5206AFF2804D98B214D
:10251000890045A003F063FD606A00281BD00121FB
:102520004903884217D04900884214D00321490347
:10253000884200E01EE00ED0B0420CD005214903D5
:10254000884208D003218903884204D0474936A035
:102550002C3103F044FD6868072149038843616A10
:10256000084368606868218C0002000A0906084375
:10257000686010E02968FF20013081432960FFF77F
:10258000C9F9064604E0FFF7C5F9801B0228B7D851
:1025900028688005F7D42078354E000730D560696B
:1025A00000281CD0012807D030491FA04A3103F071
:1025B00016FD6069002812D030690121084330619E
:1025C000FFF7A8F9009005E0FFF7A4F90099401A79
:1025D000022895D830698007F6D511E083E130698B
:1025E000400840003061FFF795F9009005E0FFF7E3
:1025F00091F90099401A0228C9D830698007F6D4A9
:10260000207840077AD500200290A068002833D0B7
:10261000C11FF93930D00521090288422CD0134955
:1026200001A0763126E000002E2E2F4472697665D7
:1026300072732F53544D33324C3078785F48414C8D
:102640005F4472697665722F5372632F73746D33B2
:10265000326C3078785F68616C5F7263632E630000
:1026600000100240126200080C000020010200006D
:102670004010024003F0B3FCA86BC00006D4A86B66
:10268000012109070843A86301200290A4480168BA
:10269000C90511D40168821511430160FFF73AF9A9
:1026A000009005E0FFF736F90099401A642890D8A9
:1026B0009B480068C005F5D5FF20A2680130824222
:1026C00003D131690143316111E001218902002AFE
:1026D00007D005231B029A4203D132690A433261B3
:1026E000EFE7326982433261306988433061A06824
:1026F00000280FD0FFF70EF9009007E020E0FFF769
:1027000009F90099411A87488142D0D8306980057B
:10271000F5D50DE0FFF7FEF8009006E0FFF7FAF8B8
:102720000099411A7F488142C1D830698005F5D4AB
:102730000298002804D0A96B012000078143A963F7
:10274000207880063AD5A069774E002821D001284C
:1027500006D07649764803F042FCA069002818D0DC
:10276000A96801200143A960696B01436963306A6C
:102770000121490308433062FFF7CCF8064604E024
:10278000FFF7C8F8801B02287ED8A8688007F7D515
:1027900014E0A86840084000A860316A01204003A6
:1027A00081433162FFF7B6F8064604E0FFF7B2F85E
:1027B000801B022868D8A8688007F7D4A06A002880
:1027C0007ED0012809D0022807D05D21C9005848D1
:1027D00003F005FCA06A002872D00326B6050C2F72
:1027E0006FD001273F06022806D02868B84328602A
:1027F000FFF790F8044677E0E06A002808D001214E
:102800000904884204D049494948333103F0E7FBC1
:10281000206B002823D00121890488421FD0490061
:1028200088421CD003218904884218D0012109055F
:10283000884214D005218904884210D00321C9049C
:1028400088420CD007218904884208D0012149051B
:10285000884204D035493648343103F0C0FB0121A9
:10286000606B8905884209D04900884206D0B04291
:1028700004D02E492E48353103F0B1FB2868B84307
:102880002860FFF747F800E02CE0064604E0FFF779
:1028900041F8801B022825D828688001F7D4216BD5
:1028A000E06AEA680843616BFD231B049A43114305
:1028B0000843E860286838432860FFF72BF801E0F8
:1028C0002BE015E0044604E0FFF724F8001B022883
:1028D00008D828688001F7D51FE0FFF71BF8001B18
:1028E000022801D90320FEBD28688001F5D414E038
:1028F0000128F8D0E86801210904E26A0140914208
:1029000009D10F218904226B0140914203D1616BEF
:102910003040884201D00120FEBD0020FEBD0000F5
:10292000007000408813000000000140BE0200005B
:10293000282600087047F3B504460079002781B0C7
:10294000012809D0012525716079012806D00127C9
:10295000002020713846FEBD0220FEBD02206071BD
:10296000FEF7D8FF06460DE0FEF7D4FF801B0228D5
:1029700008D96571A06802210843A0600020207179
:102980000120FEBD20684068C043C007ECD120682C
:102990008068E060029908606571D9E710B5044667
:1029A00000684168C943890603D54068C0434006B2
:1029B00008D4042060712046FFF7BCFF6020216826
:1029C000C043486020684168C943C90710D1016805
:1029D00008229143016020688168E16060790428E1
:1029E00006D00120607100202071204600F05EF8C2
:1029F00010BD000070B504000CD00F49206888425B
:102A000003D0A3210DA003F0EAFA60790025002885
:102A100002D005E0012070BD2571204600F02AF8A3
:102A200002206071206801680422114301600120C6
:102A30006071A560002070BD005002402E2E2F4412
:102A40007269766572732F53544D33324C307878F7
:102A50005F48414C5F4472697665722F5372632FF1
:102A600073746D33326C3078785F68616C5F726E4E
:102A7000672E630008B500680A49884210D10A48E9
:102A8000026B012109050A430263006B0022084022
:102A9000009011461D20FEF7D3FF1D20FEF7A2FF78
:102AA00008BD000000500240001002407047F8B519
:102AB0000546044620352878012819D001202870C1
:102AC000022068702168CA20486221685320486249
:102AD00020688168012292029143816020688168A8
:102AE000120191438160FEF715FF064600270FE0B3
:102AF0000220F8BDFEF70EFF811B7D20C000814241
:102B000006D92168FF204862032068702F70F8BD45
:102B10002068C0684007EDD52168FF204862012089
:102B200068702F700020F8BDF7B582B0160004461B
:102B30000DD0012E0BD0022E09D0032E07D0042E6B
:102B400005D0062E03D0404940A003F048FA4E4974
:102B50000398884204D93C493CA0491C03F03FFA41
:102B6000254620352878012813D00120287002201E
:102B700068702168CA204862216853204862206832
:102B8000806800274005002812DAFEF7C3FE009097
:102B90000AE0022005B0F0BDFEF7BCFE0099411A24
:102BA0007D20C00081421CD82068C0684007F3D453
:102BB00020688268012189028A4382602068C16896
:102BC00080221140314A8918C160FEF7A3FE0090AF
:102BD0000EE0FEF79FFE0099411A7D20C000814261
:102BE00006D92168FF204862032068702F70D1E762
:102BF0002068C0684007ECD52168039848612068C8
:102C00008168C908C900816020688168314381609A
:102C10001F480268012109050A43026082680A43CD
:102C200082602068816801229203114381602068DC
:102C300081681211114381602168FF2048620120E0
:102C400068702F700020A5E7110400002E2E5C4450
:102C50007269766572735C53544D33324C307878B8
:102C60005F48414C5F4472697665725C5372635C85
:102C700073746D33326C3078785F68616C5F727436
:102C8000635F65782E630000FFFF00007FFBFFFF9E
:102C9000000401407047000010B504460068C06899
:102CA000400509D52046FFF7F5FF2068C16880225E
:102CB0001140054A8918C160012004490005486196
:102CC00001202034607010BD7FFBFFFF0004014035
:102CD000F8B5040069D054492068884203D0E9213E
:102CE00052A003F07CF96068402805D0002803D08A
:102CF000EA214EA003F073F9A0687F2803D9EB21E5
:102D00004AA003F06CF95749E068884203D9EC21E6
:102D100046A003F064F9206900280ED0012149057E
:102D200088420AD04900884207D0032149058842D9
:102D300003D0ED213DA003F052F96069002805D0D1
:102D4000022803D0EE2139A003F049F9A069002838
:102D500007D001210905884203D0EF2133A003F0F9
:102D60003EF9E069002805D0012803D0F0212FA00A
:102D700003F035F9254620356878002803D12870FE
:102D8000204600F073F8022068702168CA2048626B
:102D9000216853204862204601F0E6FCFF26042704
:102DA0000028206802D046626F7034E081682E4AA5
:102DB00011408160216888686268A36910432269B4
:102DC0001A43104388602168E0680861206801693F
:102DD00022891204114301612068C1688022914355
:102DE000C1602068C16C89088900C164E1696069BB
:102DF00001432068C26C1143C1642068806880066A
:102E00000BD4204600F04AF8002806D0206846621D
:102E10006F70002028700120F8BD206846620120F4
:102E200068700020F8BD0000002800402E2E5C4491
:102E30007269766572735C53544D33324C307878D6
:102E40005F48414C5F4472697665725C5372635CA3
:102E500073746D33326C3078785F68616C5F727454
:102E6000632E6300FF7F0000BFFF8FFF10B5006877
:102E7000084988420DD10848016901229204114392
:102E80000161002211460220FEF7DAFD0220FEF762
:102E9000A9FD10BD002800404010024070B5044656
:102EA0000068C168A0229143C160FEF733FD7D2612
:102EB0000546F60006E0FEF72DFD401BB04201D9A5
:102EC000032070BD2068C0688006F4D5002070BD66
:102ED000F8B504006ED05F492068884207D05E498B
:102EE000884204D0FF2148315CA003F078F8606884
:102EF000002807D0C11FFD3904D0FF21493157A058
:102F000003F06DF8A06800280BD0012189028842E7
:102F100007D04901884204D0FF214A314FA003F075
:102F20005EF80121E068C902884206D0002804D07A
:102F3000FF214B3149A003F052F80126A069760227
:102F4000B04209D0002807D07102884204D0FF2186
:102F50004C3142A003F043F8E069002812D0082861
:102F600010D010280ED018280CD020280AD02828DD
:102F700008D0302806D0382804D0FF214D3137A0A2
:102F800003F02DF8206A002806D0802804D0FF2105
:102F90004E3132A003F023F8606A00280CD01028CC
:102FA0001ED0FF214F312DA003F019F8606A0028D0
:102FB00002D015E00120F8BD2069002806D00228C3
:102FC00004D0FF21523125A003F009F860690028E0
:102FD00006D0012804D0FF21533120A002F0FFFFCA
:102FE000002725464035A762687C002803D12F744E
:102FF000204600F04FF802206874206801684022E3
:1030000091430160A168606822690843E168114347
:10301000084361690843A16931400843E1690843F5
:10302000216A0843A16A084321680860A069042155
:10303000000C0840616A0843216848602068C16943
:103040000122D2029143C1616765012068740020AA
:10305000F8BD000000300140003800402E2E2F4403
:103060007269766572732F53544D33324C307878D1
:103070005F48414C5F4472697665722F5372632FCB
:1030800073746D33326C3078785F68616C5F737025
:10309000692E630010B586B0044614216846FDF71A
:1030A0009AF810492068884219D10F48816B012293
:1030B000920311438163C26A02210A43C262C06A59
:1030C0000191084005900720400300900021032053
:1030D00002910491039069460448FEF73DFA06B058
:1030E00010BD0000003800400010024000040050F5
:1030F000FFB5044683B00120019000200090E068F5
:103100000C9F1D46002801D1012D0ED90498C0073F
:1031100003D0814981A002F062FF0598C00704D066
:10312000472109017DA002F05AFFA068002804D0C1
:1031300079497AA0491D02F052FF26464036307C7C
:1031400001280FD001203074FEF7E4FB0290707C60
:10315000616801280DD0CA1FFD3A08D1A168002975
:1031600005D102E0022007B0F0BD042801D0022002
:10317000C2E00498002828D00598002825D0002D0A
:1031800023D0707C042801D0052070740020606575
:103190000599A163E587A58704992163E586A5863E
:1031A0002064606420680168490603D401684022F5
:1031B000114301600121E068C9028842606847D17B
:1031C000002804D0012D02D03BE0012094E0206BC8
:1031D00021680088C860206B801C2063E08E401E40
:1031E000E0862EE020688168890710D5E18E0029ED
:1031F0000DD0019901290AD1216B0988C160206B8A
:10320000801C2063E08E401EE08600200190206834
:103210008168C9070DD0E18F00290AD0C068A16B71
:103220000880A06B801CA063E08F401EE087012017
:103230000190FEF76FFB0299401AB84201D3781C47
:1032400059D1E08E0028CDD1E08F0028CAD146E0C8
:10325000002801D0012D3CD1206B21680078087333
:10326000206B401C2063E08E401EE08631E0206829
:103270008168890710D5E18E00290DD001990129B7
:103280000AD1216B09780173206B401C2063E08E0A
:10329000401EE0860020019020688168C9070DD09B
:1032A000E18F00290AD0C068A16B0870A06B401C98
:1032B000A063E08F401EE08701200190FEF72AFB0B
:1032C0000299401AB84202D3781C02D013E0002FB2
:1032D00011D0E08E0028CAD1E08F0028C7D139462E
:1032E0002046029A01F064FA002807D001200090DD
:1032F0002020606509E00320009006E0A068002817
:1033000003D12068C168806801900120707400209A
:103310003074009827E700006F0400002E2E2F4421
:103320007269766572732F53544D33324C3078780E
:103330005F48414C5F4472697665722F5372632F08
:1033400073746D33326C3078785F68616C5F737062
:10335000692E6300F8B50D4604460068012189070F
:10336000884212D0274988420FD0274988420CD082
:103370002649884209D02649884206D025498842F4
:1033800003D0592124A002F02AFE2868002811D079
:1033900010280FD020280DD030280BD0402809D07D
:1033A000502807D0602805D0702803D05A211AA0D1
:1033B00002F015FE6868802805D0002803D05B2144
:1033C00015A002F00CFE20462030017E012916D007
:1033D000012707760221417623685A68996870268A
:1033E000B2432E681643802291436A685E600A43A6
:1033F00021688A604776002101760846F8BD0220E0
:10340000F8BD00000004004000100040001400401F
:1034100000080140001401402E2E2F447269766589
:1034200072732F53544D33324C3078785F48414C8F
:103430005F4472697665722F5372632F73746D33B4
:10344000326C3078785F68616C5F74696D5F657845
:103450002E63000070B5040058D001212068890750
:10346000884213D03249884210D0324988420DD068
:10347000314988420AD03149884207D030498842D0
:1034800004D0FF210C312FA002F0A9FDA068002874
:103490000CD010280AD0202808D0402806D0602858
:1034A00004D0FF210D3127A002F099FD20690028EA
:1034B0000BD0C11FF93908D0C11FFF39FA3904D028
:1034C000FF210E311FA002F08AFD2C4DE068A842BA
:1034D00004D9FF210F311BA002F081FD6068A842D2
:1034E00004D9FF21103117A002F079FD606900288E
:1034F00006D0802804D0FF21113112A002F06FFD08
:1035000025462035687E002802D006E0012070BDE7
:1035100000202876204600F033F802206876211D2E
:10352000206801F0E7FC01206876002070BD0000F3
:10353000000400400010004000140040000801405A
:10354000001401402E2E2F447269766572732F533A
:10355000544D33324C3078785F48414C5F44726947
:103560007665722F5372632F73746D33326C3078BB
:10357000785F68616C5F74696D2E6300FFFF000007
:1035800000680449884204D10348816B202211431A
:1035900081637047001400400010024010B50446DB
:1035A000006801218907884213D01249884210D04F
:1035B000114988420DD0114988420AD010498842E9
:1035C00007D01049884204D0FF2181310EA002F0BB
:1035D00006FD022120462030417621688A680123B9
:1035E0005207520F062A02D00A681A430A6043762D
:1035F000002010BD000400400010004000140040F6
:1036000000080140001401402E2E2F447269766597
:1036100072732F53544D33324C3078785F48414C9D
:103620005F4472697665722F5372632F73746D33C2
:10363000326C3078785F68616C5F74696D2E6300FE
:1036400010B50446016801208007814213D012485A
:10365000814210D0114881420DD0114881420AD0D8
:103660001048814207D01048814204D0FF21B53173
:103670000EA002F0B4FC2068C26801210A43C260B7
:10368000206882685207520F062A02D002680A4355
:103690000260002010BD0000000400400010004047
:1036A0000014004000080140001401402E2E2F4459
:1036B0007269766572732F53544D33324C3078787B
:1036C0005F48414C5F4472697665722F5372632F75
:1036D00073746D33326C3078785F68616C5F7469D5
:1036E0006D2E6300704770B50446006801690025BF
:1036F000C9438907002915DBC168C943890711D46B
:10370000E91E01610120207620688069800720463B
:1037100002D0FFF7E7FF04E000F078F8204600F061
:1037200076F8257620680169C943490717D4C1682E
:10373000C943490713D40421C943016102202076FB
:10374000206880698005800F204602D0FFF7CAFFFD
:1037500004E000F05BF8204600F059F82576206878
:103760000169C943090716D4C168C943090712D4BE
:103770000821C9430161042020762068C0698007C0
:10378000204602D0FFF7AEFF04E000F03FF82046ED
:1037900000F03DF8257620680169C943C90617D4B1
:1037A000C168C943C90613D41021C9430161082067
:1037B00020762068C0698005800F204602D0FFF780
:1037C00091FF04E000F022F8204600F020F8257672
:1037D00020680169C943C90708D1C168C943C9073D
:1037E00004D1891E0161204600F012F820680169A9
:1037F000C943490609D4C168C943490605D44021D3
:10380000C9430161204600F00DF870BD7047704754
:1038100010B500680249884201D1FEF781F810BD59
:10382000001000407047704770470000F8B502680C
:103830000446D0691168936805072D0F5BD0DD073A
:10384000ED0FFF2621360E402E4367D0C60706D067
:10385000CE0504D501261662E26F3243E267870780
:1038600002220426002F06DADF0704D027683A6216
:10387000E76F3743E767470706D5DB0704D02368C0
:103880001E62E36F1343E367020709D520220A4053
:103890002A4305D0236808221A62E36F1343E367C3
:1038A000E26F002A2FD0800606D5880604D5216E47
:1038B000002901D020468847E06F216889684906C1
:1038C00001D4000724D5204601F080FC20688168DF
:1038D000490619D58168402291438160E06E002835
:1038E00012D020498163E06EFDF766FD00280AD002
:1038F000E06E816B06E0850610D58D060ED5216E33
:103900001CE020468847F8BD2046FFF78DFFF8BD34
:103910002046FFF789FF0020E067F8BDC50208D503
:103920005B0206D50120000510622046FFF77BFFF1
:10393000F8BD030605D50B0603D5616E0029E0D15D
:10394000F8BD4006FCD54806FAD51368204640214C
:103950008B431360202161670021616600F0CBF981
:10396000F8BD0000B951000870B5040015D0A06979
:103970002A4900282A4A2B4B2B4D2C4E20680ED06A
:1039800088421BD0904219D0984217D0A84215D037
:10399000B04213D0FF2130310DE0012070BD8842CC
:1039A0000CD090420AD0984208D0A84206D0B0422B
:1039B00004D0FF2135311EA002F011FB606F0028FA
:1039C00005D1002170200155204600F04FF8242039
:1039D000606720680168490849000160204601F0DD
:1039E0005DFC0128DAD0606A002802D0204601F090
:1039F000B5FA206841680922D202914341602068EB
:103A000081682A2291438160206801680122114364
:103A10000160204601F0A0FB70BD000000380140AD
:103A200000440040004C004000500040004800406E
:103A30002E2E2F447269766572732F53544D333294
:103A40004C3078785F48414C5F4472697665722FDC
:103A50005372632F73746D33326C3078785F6861A2
:103A60006C5F756172742E630000000070B586B0E3
:103A7000044614216846FCF7AEFB244E256800235B
:103A80002348042103220224B5421AD1856B0E0477
:103A900035438563C56A0D43C562C06A009208401C
:103AA00005900620049001940293039269461948F8
:103AB000FDF752FD002211461D20FDF7C1FF1D201C
:103AC00020E0154EB5421FD1456B0126B6033543A4
:103AD0004563C56A01263543C562C06A049130401A
:103AE0000590032040020090052001940293039268
:103AF00069460007FDF730FD002211461B20FDF747
:103B00009FFF1B20FDF76EFF06B070BD0048004010
:103B1000001002400008005000380140F0B5836FEB
:103B2000202B54D100290AD0002A08D08568DC0156
:103B3000A54206D10369002B03D1CB0701D0012098
:103B4000F0BD034660331E7C012E40D001261E745A
:103B50004165014640310A834A830022FF260266FE
:103B6000A54204D10569002D13D11A4D0AE07F2723
:103B7000002D09D001263607B5420CD10569002D6C
:103B800005D03F258D8307E00569002D01D08F8387
:103B900002E08E8300E08A83C26722218167016888
:103BA0008D68012635438D608168A14202D101698B
:103BB00000290AD0084901661A7400680168FF22CA
:103BC0002132114301600020F0BD0449F3E70220D7
:103BD000F0BD0000FF01000045520008ED51000853
:103BE00010B5104A006811680968884219D1114659
:103BF00040318878012810D00B781046C08F0A2BEE
:103C000005D00C46343C0355D08F401C04E0012302
:103C10008B70401C88800020D08710680122FFF73D
:103C20007DFF10BD64000020FFB50446406F83B0E7
:103C300017460D4620285CD1002D0AD0002F08D051
:103C4000A168C001814207D12069002804D1E8079A
:103C500002D0012007B0F0BD204660300290007C09
:103C6000012846D00298012101740020E06721203C
:103C70006067FDF74FFE2646403601903782778217
:103C80000120A1680003814202D12069002802D0EE
:103C90002F46002511E000270FE00022802120465A
:103CA00001F0B0FC002815D1002F15D0216838781C
:103CB00088627F1C708A401E7082708A019B002877
:103CC00006980090E9D100224021204601F09AFC9C
:103CD000002808D00320BDE728882168C005C00D52
:103CE0008862AD1CE6E72020606702990020087416
:103CF000B0E70220AEE77047FEE730B5C11D02789D
:103D0000F9314A70837842781B021A43C3781B0446
:103D10001A4303791B061A434A6042790A72C3792F
:103D200082791B021A434A81057ACA1D8D810023BC
:103D3000F9320B74144693710A781346093B002B31
:103D400017DD437A0B740A3AD1B20A23A171A94252
:103D500001D0012030BD002108E0C55C4218FF32CF
:103D600001325B1C491C55749BB2C9B2A2798A42CC
:103D7000F3D8002030BD30B5C41DFF34FA34A37928
:103D80000A21002B00D00B215A18C11DF9310D78E2
:103D9000954201D2022030BD4A7802704A684270D2
:103DA000150A8570150CC570120E02710A7A4271DF
:103DB0004A898271120AC2710A7B0272002B04D0F6
:103DC0000A7C42720A2200230AE0002030BDC51896
:103DD000FF3501356D7C8554521C5B1C92B2DBB201
:103DE000A5799D42F3D80A70EFE7000010B5C21D17
:103DF000F93253788024DB06DB0E40335370FF2307
:103E00001370074B5360137A2343137251810021BF
:103E100091811174034A1154FFF7ADFF10BD0000EA
:103E20000A00FFFF06020000F8B50546EC1DF93454
:103E30006778079EFF06FF0E0698012916D04037C7
:103E40006770FF2121700A4961601988618101460C
:103E5000A68128462274FF3032461230FCF7A2F9C0
:103E6000044846552846FFF786FFF8BD6037E7E768
:103E70000A00FFFF0602000010B500F00DFE012849
:103E800000D0002010BD000070B5FFB00C4683B01C
:103E900005464121C9006846FCF79DF900226846A5
:103EA00003E0A95C8154521CD2B2A242F9D340A8CB
:103EB00004706846FFF721FF01281DD031A0419909
:103EC00001F0DAFB31494198884214D1304C40A8C6
:103ED0004089A18888420ED140A8007AC0090AD042
:103EE0002CA001F0C9FB40A840784009042846D026
:103EF000052844D103E001207FB003B070BD40A885
:103F000041892846FFF772FF274800F0B6FE204996
:103F100026480831FEF70FFDA068E0600721012068
:103F200002F06CF9C0B21A4E207080001036305882
:103F3000FCF75AFA02460B461DA001F09DFB2078C3
:103F400080003158184800F01FFE012807D01CA03F
:103F500001F092FBEC1DF93422781D4E05E01DA006
:103F6000F6E720A001F088FB2278334629460E4868
:103F7000FFF782FF0128F4D01DA001F07DFB002097
:103F8000BAE7000025750D0A000000000A00FFFFD7
:103F90003400002041434B206973207265636569DA
:103FA0007665640D0A00000014000020B8030020AC
:103FB000547846726571203A2025660D0A0000008B
:103FC000536574554C667265714F4B0D0A000000C5
:103FD00010270000536574554C667265714641495F
:103FE0004C0D0A00547841434B4661696C0D0A0040
:103FF000547841434B446F6E650D0A0092B0002621
:104000006946884C0E72012060703746A070FCF73C
:1040100071FC204630302146006870310122109139
:10402000FFF77CFD0025A078002879D0012805D075
:104030000228F8D16078012873D098E07AA001F0C6
:104040001BFB78480122303001894068FDF7FCFBFA
:10405000002F05D028466D1CEDB2032802D003E0E6
:10406000002501E00025A570754800F006FE6D49A9
:1040700074480831FEF75FFCA068E060072101206A
:1040800002F0BCF8C0B2674F20708000103738587B
:10409000FCF7AAF902460B466BA001F0EDFA207876
:1040A00080003958664800F06FFD012828D06AA0CA
:1040B00001F0E2FA6C486EA103686C48026803A83C
:1040C00001F0EAFA10982D22828003A96B48FCF7D0
:1040D00069F86A496AA001F0CFFA6B48514B008831
:1040E000A0801099654889880022019100901B1DCD
:1040F00011466648FFF798FE002803D064A002E04E
:1041000067A0D5E76AA001F0B7FA6D486D4B027859
:104110005E494B48FFF7B0FE002809D0012701E0B7
:1041200069E00EE068A001F0A7FAFDF721FD7AE74B
:1041300068A001F0A1FA0220A070012060700027A1
:10414000F3E767A001F098FA3D4800F096FD354886
:10415000103001683A4800F017FD01280CD066A025
:1041600001F08AFAFDF7D6FB064600206070A088B1
:104170007D273F01019027E063A0F1E73F493048E8
:10418000323902AA644B00F0E7FB012819D063A082
:1041900001F072FA6846017A38483238FFF774FE47
:1041A000012811D0A088401C80B2A0800090FDF7AB
:1041B00097F935490220009AFDF740F9FDF730F9EB
:1041C00007E058A001F058FAFDF7A4FB801BB842A5
:1041D000D4D3A1880198884206D155A001F04CFAA9
:1041E0000120A07007461EE73846FDF70BF90027AF
:1041F0000120A07017E75BA001F03EFAFCF77AFB04
:1042000008480022303001894068FDF71DFB0C484A
:1042100000F022FD012803D058A001F02DFA02E79A
:104220005AA0FAE7340000200D0A3D3D3D3D3D3DDA
:104230003D54583D3D3D3D3D3D3D0D0A00000000D3
:1042400014000020B8030020547846726571203AAB
:104250002025660D0A000000536574554C66726592
:10426000714F4B0D0A0000000400002000000020E8
:1042700025642C2025640D0A00000000CA040020DB
:1042800025730D0A0000000000000808AC000020A3
:1042900073657269616C697A654641494C0D0A0023
:1042A000536574554C667265714641494C0D0A0060
:1042B00073657269616C697A654F4B0D0A00000085
:1042C000AC0100201027000054784661696C0D0A8B
:1042D000000000005478446F6E650D0A0000000075
:1042E0000D0A3D3D3D3D3D3D3D52583D3D3D3D3D31
:1042F0003D3D0D0A00000000536574444C66726534
:10430000714F4B0D0A000000536574444C66726592
:10431000714641494C0D0A008813000052784F4BFA
:104320000D0A000052784661696C0D0A0000000019
:104330004E6F2041434B202B2054696D656F75747F
:10434000203D3E2052657472616E736D69747469AC
:104350006E67205061636B65742025752E2E2E0DBF
:104360000A0000000D0A3D3D3D3D3D3D3D534C459D
:1043700045503D3D3D3D3D3D3D0D0A00536574209A
:10438000536C656570204F4B0D0A00005365742017
:10439000536C656570204661696C0D0A0000000071
:1043A00008A001F069F9114800F063FB0F4800F024
:1043B00070FA012804D00EA001F05EF9FFF71EFE8E
:1043C0000FA0F9E70D0A3D3D3D3D3D3D3D53746174
:1043D0007274204C6F526120536572766963653D3B
:1043E0003D3D3D3D3D3D0D0A000000001400002014
:1043F000496E6974204C6F5261204F4B0D0A0000CA
:10440000496E6974204C6F5261204661696C0D0AD7
:104410000000000010B51248104A02600021C1637C
:1044200052054260816007228263012202610246D6
:10443000C16020321170FF235170C2334362816228
:10444000117301638161042241634261C161FCF720
:1044500003FC002801D0FCF76CFA10BD00240140D9
:10446000FC040020F0B587B014216846FBF7B3FECA
:104470005648C16A04263143C162C16A3140059180
:10448000C16A80221143C162C16A11400591C16AAB
:1044900001252943C162C16A29400591C16A0224EC
:1044A0002143C162C16A21400591C16A08221143BA
:1044B000C162C06A21461040059000224448FDF7C1
:1044C000C3F900940024019502946946404803947E
:1044D000FDF742F8052000223E490007FDF7B4F938
:1044E00000223D493D48FDF7AFF900224021384800
:1044F000FDF7AAF93A48032700906946019702940C
:104500003348FDF729F837480090052069460197A0
:1045100002940007FDF720F82E4800900520029431
:104520006946019503940007FDF716F808200090EE
:1045300005200194694602940007FDF70DF811204B
:10454000009029480190694602942448FDF704F838
:104550002148694622380090019702941F48FCF7D1
:10456000FBFF1D48009002946946019503941B4887
:10457000FCF7F2FF402000900294694601950394F5
:104580001348FCF7E9FF8020009017480190694626
:1045900002940F48FCF7E0FF694614480197009623
:1045A0000294FCF7D9FF002211460520FDF748FAD6
:1045B0000520FDF717FA002211460720FDF740FA03
:1045C0000720FDF70FFA07B0F0BD00000010024011
:1045D0000008005004800000081000000004005093
:1045E0003CFF0000F219000000001110000C005008
:1045F00010B50649044808600846FEF7FBF9002894
:1046000001D0FCF796F910BD00500240B80300201D
:1046100010B50B48094901607F228260002141608A
:1046200001614161FF228161C260C161FEF750FBFF
:10463000002801D0FCF77DF910BD000000280040E3
:104640005C04002010B50E480C490160FF210531C3
:10465000416000218160C16001614161C16101224D
:10466000016252024162826181620721C162FEF7EA
:104670002FFC002801D0FCF75CF910BD0038004089
:10468000C80300201CB500240E4800940C49019476
:1046900001601F21846041600B494461C160FEF7E5
:1046A000D9FE002801D0FCF744F90094694605487A
:1046B0000194FEF74FFE002801D0FCF73AF91CBD2B
:1046C0000014004058050020FEFF000010B50C4803
:1046D0000A4901604B21C901416000218160C1602C
:1046E00001618161C1610C22016242614162FFF797
:1046F0003BF9002801D0FCF71CF910BD003801403F
:1047000038030020704700008307FF22DB0E9A4029
:104710008907090E994000280BDA0007000F0838B6
:10472000830808489B001818C36993430B43C3616F
:104730007047830804489B001B181868904308437F
:104740001860704700ED00E000E400E070470000F2
:1047500010B50348FEF722F90248FFF767F810BDCD
:10476000B8030020B802002070B504460068C16894
:10477000490613D40021C943C160FDF7CBF87D265B
:104780000546F60006E0FDF7C5F8401BB04201D92A
:10479000032070BD2068C0684006F4D5002070BDBD
:1047A00010B50248FEF778FA10BD00005C04002046
:1047B00038B504464068FF2305332025984204D1CC
:1047C00000920B460022802107E05120005D052861
:1047D0000DD100920B4600220121204600F009F87D
:1047E000002804D0606D28436065032038BD002098
:1047F00038BDF8B51D4617460E46044609E0681C4C
:1048000007D0FDF787F80699401AA8420BD2002D71
:1048100009D020688168304688432ED00020B842F5
:10482000EDD10020F8BD20684168E022914341604D
:104830006068C11FFD390CD10121A068C9038842FD
:1048400002D04911884204D1206801684022914376
:1048500001600120A16A4003814207D121680A68F2
:1048600082430A6021680A6802430A6001204034DA
:104870006074002020740320F8BD0120CFE770474A
:1048800010B5FF22122100F0AFFA012800D000205D
:1048900010BD10B5044600F0ECF8204600F0A2F977
:1048A000012820D0A17D204600F010FA01281AD05E
:1048B000217F204600F050FA012814D02046A1693B
:1048C00000F062F901280ED01D2161560022204619
:1048D00000F054FA012806D0A17F204600F01AFA11
:1048E000012800D0002010BDFFB5114D04462868F6
:1048F00081B01E461746002815D0218A0022E068A4
:10490000FCF7A2FF0020C04300902D6820683346CA
:104910003A460299A847002808D00126218A012298
:10492000E068FCF791FF304605B0F0BD0026F5E7E2
:10493000100000201CB514464906490E6A46117045
:10494000022301AA6946FFF7CFFF012803D068467A
:104950004079207000201CBDFFB5FFB0FF2486B059
:1049600005341E461746214601A8FBF734FC2146B4
:1049700043A8FBF730FC00256846057040A8057287
:104980008598407D032827D0002804D0859800F022
:1049900074F9012821D08598FFF772FF01281CD0F7
:1049A00000220F21859800F01FFA012815D0859864
:1049B00000F03CF9012810D0FCF7ACFF04460FE0F2
:1049C000FCF7A8FFA04202D2FCF7A4FF0446FCF7C4
:1049D000A1FF001BB04203D901207FB00AB0F0BD97
:1049E0006A4612218598FFF7A5FF0128F5D0684691
:1049F00000784006E4D542AA13218598FFF79AFF74
:104A00000128EAD040A8007A38706A4610218598BB
:104A1000FFF790FF0128E0D0684602780D218598C5
:104A200000F0E2F90128D8D06846057140A8037A61
:104A300043AA01A95B1C8598FFF756FF0128CCD03B
:104A4000002043A905E00A185378869A1354401CA5
:104A5000C0B240AA127A9042F5D38598FFF710FFB2
:104A60000128BAD0859800F008F90128B5D00020B7
:104A7000B3E710B50446018940680022FCF7E4FE64
:104A80000A20FCF7BFFC218901226068FCF7DCFEEC
:104A90000A20FCF7B7FC10BDFFB5FFB0FF2784B0BC
:104AA0000E4605371D46144639466846FBF793FB0C
:104AB000394642A8FBF78FFB002040A90871381F38
:104AC000844200D90446839800F0D7F801283ED0EC
:104AD000E2B22221839800F087F9012837D0002222
:104AE0000E21839800F080F9012830D000220D219A
:104AF000839800F079F9012829D080206946087050
:104B0000002004E0325C0B18401C5A70C0B2A04276
:104B1000F8D3641CA3B242AA8398FFF7E5FE0128EC
:104B200015D0839800F0BBF8012810D0FCF7F2FEF6
:104B300004460FE0FCF7EEFEA04202D2FCF7EAFECC
:104B40000446FCF7E7FE001BA84203D901207FB012
:104B500008B0F0BD41AA12218398FFF7EBFE0128AF
:104B6000F5D040A800790007E4D5082212218398E7
:104B700000F03AF90128EAD0839800F07EF8012885
:104B8000E5D00020E3E7000070B505460846FBF7D6
:104B90002BFC0022114BFBF729FB0022104BFBF7EB
:104BA0008DFBFBF703FC04460002020E062128469B
:104BB00000F01AF901280FD02004020E0721284620
:104BC00000F012F9012807D0E2B20821284600F0CF
:104BD0000BF9012800D0002070BD000080842E4118
:104BE00080844E4038B5044600206946087020464F
:104BF00000F032F8012818D06A4601212046FFF75C
:104C000099FE012811D06846027880200243684648
:104C100002700121204600F0E7F8012805D0204667
:104C200000F02BF8012800D0002038BD10B5044654
:104C3000407D02280ED00521204600F074F801289E
:104C400009D000224021204600F0CEF8012802D0F1
:104C500002206075002010BD10B50446407D01287B
:104C600009D00021204600F05EF8012804D0012080
:104C70006075FCF7C7FB002010BD10B50446407DF1
:104C800000280BD00121204600F04DF8012805D066
:104C9000002060750120FCF7B5FB002010BD10B5A9
:104CA0000446407D03280ED00321204600F03BF847
:104CB000012809D040221146204600F095F801282D
:104CC00002D003206075002010BD000070B50546BD
:104CD000481C052801D9012070BD48000E180C4C55
:104CE0001D21A25D284600F07FF80128F4D0341978
:104CF00062781E21284600F077F80128ECD0A278CF
:104D00002621284600F070F80128E5D0002070BD6B
:104D10003362000810B50A46392100F065F8012811
:104D200000D0002010BD38B50C460546002069466D
:104D300008706A4601212846FFF7FCFD01280AD0C9
:104D4000684600780121C208D200224368460270FA
:104D5000284600F049F838BD70B50C460A0A0546E9
:104D6000202100F041F8012807D0E2B22121284695
:104D700000F03AF8012800D0002070BD70B50C4654
:104D80000546012A03D0172C0DDD172411E0002061
:104D9000C0430E2C01DD0E2402E0844200DA0446FA
:104DA0007020641C16E0052C01DA05240AE0142C9E
:104DB00008DD07224D2100F017F8012813D0E41E6A
:104DC00064B205E004224D2100F00EF801280AD05B
:104DD0008020641F0443E2B20921284600F004F851
:104DE000012800D0002070BD1CB5802319436B46FC
:104DF00019705A70022301AA6946FFF775FD012850
:104E000000D000201CBD000010B59CB038216846C1
:104E1000FBF7E1F9142117A8FBF7DDF924210EA80F
:104E2000FBF7D9F9194801680322D2029143C21451
:104E300089180160092000905001019001210B9018
:104E400005910320022180040C9048050D900A91E1
:104E50006846FDF7F1F90F20179003201890012004
:104E6000002480021A90199401211B9417A8FCF7C2
:104E7000FDFF65200E90012040040F9010941294C5
:104E800016940EA8FCF784FE1CB010BD0070004004
:104E900010480168821511430160C1680E4A114033
:104EA000C16001680D4A11400160816849084900EC
:104EB000816001680122920491430160C168FD2272
:104EC00012049143C160002101610549C00388605B
:104ED00070470000001002400C40FF88F6FFF6FE0D
:104EE00000ED00E010B50248FEF7FDFB10BD00002C
:104EF00020040020F0B502680124A407144D154ECB
:104F0000154FA04205D0A84203D0B04201D0B8420C
:104F100004D11346702293434A681A43A04205D035
:104F2000A84203D0B04201D0B84204D103231B02EF
:104F30009A43CB681A4380239A430B691A43026051
:104F40008A68C2620968816201214161F0BD000086
:104F500000040040000801400014014070B5044600
:104F6000406AFF2803D96A496AA001F038F8A08C8A
:104F7000C00711D00125A06A6D04002806D0A84200
:104F800004D0634963A0491D01F029F820684168F5
:104F9000A26AA94311434160A08C800711D5012565
:104FA000E06A2D04002806D0A84204D0584959A030
:104FB0000C3101F014F821684868E26AA8431043F4
:104FC0004860A08C400711D50125206BAD04002856
:104FD00006D0A84204D04E494EA0133100F0FFFF86
:104FE00020684168226BA94311434160A08C0007EF
:104FF00011D50125606BED03002806D0A84204D02E
:10500000434944A01A3100F0EAFF21684868626B06
:10501000A84310434860A08CC00611D50125A06BA1
:105020002D03002806D0A84204D0394939A02131E7
:1050300000F0D5FF21688868A26BA8431043886000
:10504000A08C800611D50125E06B6D03002806D0E9
:10505000A84204D02E492FA0283100F0C0FF2168BB
:105060008868E26BA84310438860A08C400639D55D
:1050700037492068884207D03649884204D02449FD
:1050800024A02F3100F0ABFF0125206C2D05002856
:1050900006D0A84204D01E491EA0303100F09FFF68
:1050A00021684868226CA84310434860206CA842DD
:1050B00018D10325606C6D0500280DD0012149052C
:1050C000884209D04900884206D0A84204D010493D
:1050D00010A0353100F083FF21684868626CA84356
:1050E00010434860A08C000611D50125A06CED048A
:1050F000002806D0A84204D0054906A03D3100F0A2
:105100006EFF20684168A26CA9431143416070BDE5
:105110009A0B00002E2E2F447269766572732F53FE
:10512000544D33324C3078785F48414C5F4472695B
:105130007665722F5372632F73746D33326C3078CF
:10514000785F68616C5F756172742E6300000000A7
:105150000038014000440040F8B500260446C66708
:10516000FCF7D8FB054620680068124F000709D5F8
:1051700001212B46002249052046009700F042FA03
:1051800000280DD12068006840070BD501212B466F
:10519000002289052046009700F034FA002801D04B
:1051A0000320F8BD20206067A067603426740020CB
:1051B000F8BD0000FFFFFF0110B5806A0022014624
:1051C00040314A834A82FEF72FFB10BD01680A680E
:1051D000FF2321339A430A6001688A68520852000B
:1051E0008A602021816700210166704710B5014661
:1051F00040318B8B846F0268222C04D09069082187
:105200000843906110BD526A446D1A402280426D7D
:10521000921C42654A8B521E4A83498B0029F1D168
:1052200001680A68FF2321339A430A6001688A688B
:10523000520852008A602021816700210166FEF732
:10524000CFFC10BD10B5014640318B8B846F0268D6
:10525000222C04D0906908210843906110BD526A45
:105260001A40436D1A70426D521C42654A8B521EA1
:105270004A83498B0029F1D101680A68FF23213351
:105280009A430A6001688A68520852008A602021A5
:10529000816700210166FEF7A3FC10BDF8B5044646
:1052A0004068BB4910260025884203D3B949BAA0FB
:1052B00000F095FE01210907A0680F14884208D06C
:1052C000002806D0B84204D0B249B3A0491C00F06F
:1052D00086FEC048226841148242E06806D1002858
:1052E0001FD088421DD0AB49091D17E0B8420CD031
:1052F00000280AD003221203904206D0884204D02C
:10530000AD210901A4A000F06AFE206A002808D09F
:105310000121C902884204D09E4909319EA000F0B3
:105320005EFE206900280CD001218902884208D045
:1053300003214902884204D0964997A00C3100F01D
:105340004EFE60690C2102468A4301D1002804D137
:10535000904991A00D3100F042FEA06900280FD0C5
:10536000C11FF9390CD0C11FFF39FA3908D0032108
:105370000902884204D0874987A00E3100F02FFE31
:105380000127E069FF03002806D0B84204D0814914
:1053900081A00F3100F023FE2169A068E269084373
:1053A000616911432268084311688B4B194001431E
:1053B000116021684868032212039043E268104399
:1053C0004860844A2168A069914201D0226A104352
:1053D0008A680B231B029A4302438A607F49226832
:1053E0007F488A420CD1C0688007800F06D0012810
:1053F0003ED002283AD0032826D124E0012623E01B
:1054000078498A420AD1C0680C2108402CD004286F
:105410002ED008282AD00C2816D114E072498A42CE
:1054200022D072498A421FD06A498A420CD1C1688F
:1054300003208002014017D01015091A18D0091A4C
:1054400014D0814200D1082665495148614B40394A
:10545000401E9A4234D1002E0CD0022E0DD0042EC4
:1054600010D0082E1DD11AE00026EDE70226EBE74A
:105470000426E9E7FCF784FE06E00968C90605D4BE
:105480005B4803E0FCF79CFE002872D06268510084
:105490005118814205D81103814202D303E03846F6
:1054A000F4E7012565E0010E0602500800233018DC
:1054B0005941FAF747FE03210902411A4D4A54E0C7
:1054C000E269BA4232D1330000F011F909070A0D3E
:1054D00006250606062B0600E3E7FCF751FE1CE056
:1054E000FCF75EFE19E008686168C00602D548084E
:1054F000414A01E0414A48088018FAF7F9FD80B2B4
:1055000001463F4A10399142CBD8511C0140000757
:10551000400F08432BE0FCF753FE616840004A0847
:10552000EAE76168012248081204E5E7330000F069
:10553000DEF809070A0D06250606062B0600B0E769
:10554000FCF71EFE1CE0FCF72BFE19E00968C906FB
:10555000616801D54A0801E025484A081018FAF7A1
:10556000C7FD80B20146264A1039914299D8216878
:10557000C8600020206660662846F8BDFCF720FE63
:1055800061684A088018EAE761684808C019E6E7D8
:1055900001093D00C80A00002E2E2F44726976656D
:1055A00072732F53544D33324C3078785F48414CEE
:1055B0005F4472697665722F5372632F73746D3313
:1055C000326C3078785F68616C5F756172742E63DD
:1055D0000000000000480040F369FFEF0038014080
:1055E0004010024000440040004C00400050004089
:1055F0000024F400FFFC0F0000127A000048E801CC
:10560000EFFF0000FFB581B017460E4604460A9D25
:1056100009E0681C07D0FCF77DF90499401AA842FC
:105620000CD8002D0AD02068C1693046884318D0B4
:105630000020B842EDD0002005B0F0BD2068016820
:10564000FF22A13291430160206881684908490026
:10565000816020206067A0670020603420740320F0
:10566000EAE70120E5E7000010B50248FEF7DEF8A2
:1056700010BD0000380300200FB410B503A9044B7F
:10568000044A029800F00AF910BC08BC04B018479C
:10569000F95F0008B40200200FB410B504A9074B4D
:1056A00002AA039800F0FAF8044602A9002000F0CC
:1056B00091FC204610BC08BC04B01847D55F000818
:1056C0002021020C01D010211046020A01D0104600
:1056D0000839020901D01046091F820801D010467E
:1056E000891E420801D0881E7047081A704730B4DE
:1056F0007446641E2578641CAB4200D21D46635D6F
:105700005B00E31830BC184702E008C8121F08C14C
:10571000002AFAD170477047002001E001C1121F32
:10572000002AFBD170470000F0B51FB486B009987D
:10573000089A030D0021024314D05148514A181809
:10574000504305141198012810981AD0281A401CAB
:1057500000264D4F4D49009601910490002812DA21
:10576000444211E01198012449A3012801D1109865
:10577000C1430698119A84600360C26041600BB017
:10578000F0BD4042E4E70446210500203F4A001CEA
:1057900051410391029012E0E00707D032463B46A8
:1057A00001990098FAF722FD0191009032463B469C
:1057B00010461946FAF71AFD06460F466410002CEB
:1057C000EAD10498039B0028029A0999089806DAFE
:1057D000FAF70CFD019B009AFAF708FD05E0FAF7CD
:1057E0006DFD019B009AFAF769FD04460E46002202
:1057F000284BFAF75FFF03D80020C043014607E0BB
:105800000022254B20463146FAF782FEFAF732FF96
:10581000102409E0002C0ADB0A220023FAF792FC8C
:10582000079B30321A55641E02460A43F2D11122F8
:10583000641C079B121B1C19119B012B03D0012315
:1058400008430ED10AE0084304D011201090002034
:10585000119077E71098151A6D1E0BE01098824290
:1058600002DD00236D1C03E0824201DA00236D1E7D
:10587000002BEED0069811998260C16030C07EE79F
:1058800001FCFFFF104D0000000014400000F03F3D
:10589000300000000000F0430000E03FFFB597B08B
:1058A0000646002518E2252877D100242746FD4921
:1058B000049400E00443761C32780120203A9040A2
:1058C0000842F7D130782A280ED0022230780146DB
:1058D0003039092916D804990A2359433039401818
:1058E0001443761C0490F1E7189802C804911890AC
:1058F000002904DA012040030443484204900220B6
:105900000443761C30782E2814D104200443707888
:10591000761C2A2809D11898761C80C8189009E0AE
:105920000A214F43303FC719761C30780146303981
:105930000929F5D930786C2810D006DC4C281AD00B
:1059400068280ED06A2817D104E0742813D07A286A
:1059500012D110E00120400504430CE001210905AB
:1059600001E0032109050C437178814203D1012034
:1059700000052418761C761C3078119066280BD010
:1059800013DC58287DD009DC00287BD04528F6D0D0
:105990004628F4D047281AD1A5E118E0632835D06D
:1059A000642870D0652812D19DE170286CD008DC85
:1059B0006728F1D069287BD06E280DD06F2806D1DA
:1059C000BAE073282ED0752871D0782859D01A9A49
:1059D000199990476D1C7EE16002400F022809D0A2
:1059E00003280DD00428189801680DD00D60001D03
:1059F000189070E11898EA1701680D604A60F6E7A0
:105A0000189801680D80F2E70D70F0E718986A4663
:105A100001781172001D18900020507202A80090A9
:105A2000012005E0189802C8189000200091C0439A
:105A300061070DD5002101E00199491C0191B9428E
:105A400012DA8142F8DB009A515C0029F4D10BE0B4
:105A5000002101E00199491C01918142FADB019A80
:105A60000099895C0029F5D1019904981A9B471A7D
:105A700021463846199A00F097FA019940194518BD
:105A80000BE04FE02CE113E04EE000980099007825
:105A9000491C00911A9A199990470198401E01904B
:105AA000401CF2D1214638461A9B199A10E137E082
:105AB0000A200021009001916002410F022907D0C5
:105AC000189A01CA1892C2179446032908D00AE00E
:105AD0001898C01DC108C90005C91891944607E06F
